{
  "contractName": "BirbzNFTToken",
  "abi": [
    {
      "inputs": [],
      "stateMutability": "nonpayable",
      "type": "constructor"
    },
    {
      "anonymous": false,
      "inputs": [
        {
          "indexed": true,
          "internalType": "address",
          "name": "owner",
          "type": "address"
        },
        {
          "indexed": true,
          "internalType": "address",
          "name": "approved",
          "type": "address"
        },
        {
          "indexed": true,
          "internalType": "uint256",
          "name": "tokenId",
          "type": "uint256"
        }
      ],
      "name": "Approval",
      "type": "event"
    },
    {
      "anonymous": false,
      "inputs": [
        {
          "indexed": true,
          "internalType": "address",
          "name": "owner",
          "type": "address"
        },
        {
          "indexed": true,
          "internalType": "address",
          "name": "operator",
          "type": "address"
        },
        {
          "indexed": false,
          "internalType": "bool",
          "name": "approved",
          "type": "bool"
        }
      ],
      "name": "ApprovalForAll",
      "type": "event"
    },
    {
      "anonymous": false,
      "inputs": [
        {
          "indexed": false,
          "internalType": "address",
          "name": "to",
          "type": "address"
        },
        {
          "indexed": false,
          "internalType": "uint256",
          "name": "balance",
          "type": "uint256"
        }
      ],
      "name": "BalanceWithdrawed",
      "type": "event"
    },
    {
      "anonymous": false,
      "inputs": [
        {
          "indexed": false,
          "internalType": "enum BirbzNFTToken.Status",
          "name": "oldStatus",
          "type": "uint8"
        },
        {
          "indexed": false,
          "internalType": "enum BirbzNFTToken.Status",
          "name": "newStatus",
          "type": "uint8"
        }
      ],
      "name": "ContractStatusChanged",
      "type": "event"
    },
    {
      "anonymous": false,
      "inputs": [
        {
          "indexed": false,
          "internalType": "uint256",
          "name": "oldSupply",
          "type": "uint256"
        },
        {
          "indexed": false,
          "internalType": "uint256",
          "name": "newSupply",
          "type": "uint256"
        }
      ],
      "name": "MaxSupplyChanged",
      "type": "event"
    },
    {
      "anonymous": false,
      "inputs": [
        {
          "indexed": false,
          "internalType": "uint256",
          "name": "oldPrice",
          "type": "uint256"
        },
        {
          "indexed": false,
          "internalType": "uint256",
          "name": "newPrice",
          "type": "uint256"
        }
      ],
      "name": "NFTPriceChanged",
      "type": "event"
    },
    {
      "anonymous": false,
      "inputs": [
        {
          "indexed": true,
          "internalType": "address",
          "name": "previousOwner",
          "type": "address"
        },
        {
          "indexed": true,
          "internalType": "address",
          "name": "newOwner",
          "type": "address"
        }
      ],
      "name": "OwnershipTransferred",
      "type": "event"
    },
    {
      "anonymous": false,
      "inputs": [
        {
          "indexed": false,
          "internalType": "address",
          "name": "from",
          "type": "address"
        },
        {
          "indexed": false,
          "internalType": "address",
          "name": "to",
          "type": "address"
        }
      ],
      "name": "PayRecipientChanged",
      "type": "event"
    },
    {
      "anonymous": false,
      "inputs": [
        {
          "indexed": true,
          "internalType": "address",
          "name": "from",
          "type": "address"
        },
        {
          "indexed": true,
          "internalType": "address",
          "name": "to",
          "type": "address"
        },
        {
          "indexed": true,
          "internalType": "uint256",
          "name": "tokenId",
          "type": "uint256"
        }
      ],
      "name": "Transfer",
      "type": "event"
    },
    {
      "anonymous": false,
      "inputs": [
        {
          "indexed": false,
          "internalType": "address",
          "name": "wallet",
          "type": "address"
        }
      ],
      "name": "WalletAddedToDenyList",
      "type": "event"
    },
    {
      "stateMutability": "payable",
      "type": "fallback"
    },
    {
      "inputs": [
        {
          "internalType": "address",
          "name": "to",
          "type": "address"
        },
        {
          "internalType": "uint256",
          "name": "tokenId",
          "type": "uint256"
        }
      ],
      "name": "approve",
      "outputs": [],
      "stateMutability": "nonpayable",
      "type": "function"
    },
    {
      "inputs": [
        {
          "internalType": "address",
          "name": "owner",
          "type": "address"
        }
      ],
      "name": "balanceOf",
      "outputs": [
        {
          "internalType": "uint256",
          "name": "",
          "type": "uint256"
        }
      ],
      "stateMutability": "view",
      "type": "function"
    },
    {
      "inputs": [
        {
          "internalType": "uint256",
          "name": "tokenId",
          "type": "uint256"
        }
      ],
      "name": "getApproved",
      "outputs": [
        {
          "internalType": "address",
          "name": "",
          "type": "address"
        }
      ],
      "stateMutability": "view",
      "type": "function"
    },
    {
      "inputs": [
        {
          "internalType": "address",
          "name": "owner",
          "type": "address"
        },
        {
          "internalType": "address",
          "name": "operator",
          "type": "address"
        }
      ],
      "name": "isApprovedForAll",
      "outputs": [
        {
          "internalType": "bool",
          "name": "",
          "type": "bool"
        }
      ],
      "stateMutability": "view",
      "type": "function"
    },
    {
      "inputs": [],
      "name": "name",
      "outputs": [
        {
          "internalType": "string",
          "name": "",
          "type": "string"
        }
      ],
      "stateMutability": "view",
      "type": "function"
    },
    {
      "inputs": [],
      "name": "owner",
      "outputs": [
        {
          "internalType": "address",
          "name": "",
          "type": "address"
        }
      ],
      "stateMutability": "view",
      "type": "function"
    },
    {
      "inputs": [
        {
          "internalType": "uint256",
          "name": "tokenId",
          "type": "uint256"
        }
      ],
      "name": "ownerOf",
      "outputs": [
        {
          "internalType": "address",
          "name": "",
          "type": "address"
        }
      ],
      "stateMutability": "view",
      "type": "function"
    },
    {
      "inputs": [],
      "name": "renounceOwnership",
      "outputs": [],
      "stateMutability": "nonpayable",
      "type": "function"
    },
    {
      "inputs": [
        {
          "internalType": "address",
          "name": "from",
          "type": "address"
        },
        {
          "internalType": "address",
          "name": "to",
          "type": "address"
        },
        {
          "internalType": "uint256",
          "name": "tokenId",
          "type": "uint256"
        }
      ],
      "name": "safeTransferFrom",
      "outputs": [],
      "stateMutability": "nonpayable",
      "type": "function"
    },
    {
      "inputs": [
        {
          "internalType": "address",
          "name": "from",
          "type": "address"
        },
        {
          "internalType": "address",
          "name": "to",
          "type": "address"
        },
        {
          "internalType": "uint256",
          "name": "tokenId",
          "type": "uint256"
        },
        {
          "internalType": "bytes",
          "name": "data",
          "type": "bytes"
        }
      ],
      "name": "safeTransferFrom",
      "outputs": [],
      "stateMutability": "nonpayable",
      "type": "function"
    },
    {
      "inputs": [
        {
          "internalType": "address",
          "name": "operator",
          "type": "address"
        },
        {
          "internalType": "bool",
          "name": "approved",
          "type": "bool"
        }
      ],
      "name": "setApprovalForAll",
      "outputs": [],
      "stateMutability": "nonpayable",
      "type": "function"
    },
    {
      "inputs": [
        {
          "internalType": "bytes4",
          "name": "interfaceId",
          "type": "bytes4"
        }
      ],
      "name": "supportsInterface",
      "outputs": [
        {
          "internalType": "bool",
          "name": "",
          "type": "bool"
        }
      ],
      "stateMutability": "view",
      "type": "function"
    },
    {
      "inputs": [],
      "name": "symbol",
      "outputs": [
        {
          "internalType": "string",
          "name": "",
          "type": "string"
        }
      ],
      "stateMutability": "view",
      "type": "function"
    },
    {
      "inputs": [
        {
          "internalType": "uint256",
          "name": "tokenId",
          "type": "uint256"
        }
      ],
      "name": "tokenURI",
      "outputs": [
        {
          "internalType": "string",
          "name": "",
          "type": "string"
        }
      ],
      "stateMutability": "view",
      "type": "function"
    },
    {
      "inputs": [
        {
          "internalType": "address",
          "name": "from",
          "type": "address"
        },
        {
          "internalType": "address",
          "name": "to",
          "type": "address"
        },
        {
          "internalType": "uint256",
          "name": "tokenId",
          "type": "uint256"
        }
      ],
      "name": "transferFrom",
      "outputs": [],
      "stateMutability": "nonpayable",
      "type": "function"
    },
    {
      "inputs": [
        {
          "internalType": "address",
          "name": "newOwner",
          "type": "address"
        }
      ],
      "name": "transferOwnership",
      "outputs": [],
      "stateMutability": "nonpayable",
      "type": "function"
    },
    {
      "stateMutability": "payable",
      "type": "receive"
    },
    {
      "inputs": [
        {
          "internalType": "address",
          "name": "wallet_",
          "type": "address"
        },
        {
          "internalType": "string",
          "name": "tokenURI_",
          "type": "string"
        }
      ],
      "name": "mint",
      "outputs": [],
      "stateMutability": "payable",
      "type": "function"
    },
    {
      "inputs": [
        {
          "internalType": "address",
          "name": "wallet_",
          "type": "address"
        },
        {
          "internalType": "uint256",
          "name": "amountToMint_",
          "type": "uint256"
        },
        {
          "internalType": "string",
          "name": "tokenURI_",
          "type": "string"
        }
      ],
      "name": "mintMultiple",
      "outputs": [],
      "stateMutability": "payable",
      "type": "function"
    },
    {
      "inputs": [],
      "name": "getPrice",
      "outputs": [
        {
          "internalType": "uint256",
          "name": "",
          "type": "uint256"
        }
      ],
      "stateMutability": "view",
      "type": "function"
    },
    {
      "inputs": [
        {
          "internalType": "uint256",
          "name": "price_",
          "type": "uint256"
        }
      ],
      "name": "setPrice",
      "outputs": [],
      "stateMutability": "nonpayable",
      "type": "function"
    },
    {
      "inputs": [],
      "name": "getStatus",
      "outputs": [
        {
          "internalType": "enum BirbzNFTToken.Status",
          "name": "",
          "type": "uint8"
        }
      ],
      "stateMutability": "view",
      "type": "function"
    },
    {
      "inputs": [
        {
          "internalType": "enum BirbzNFTToken.Status",
          "name": "status_",
          "type": "uint8"
        }
      ],
      "name": "setStatus",
      "outputs": [],
      "stateMutability": "nonpayable",
      "type": "function"
    },
    {
      "inputs": [],
      "name": "getMaxSupply",
      "outputs": [
        {
          "internalType": "uint256",
          "name": "",
          "type": "uint256"
        }
      ],
      "stateMutability": "view",
      "type": "function"
    },
    {
      "inputs": [
        {
          "internalType": "uint256",
          "name": "maxSupply_",
          "type": "uint256"
        }
      ],
      "name": "setMaxSupply",
      "outputs": [],
      "stateMutability": "nonpayable",
      "type": "function"
    },
    {
      "inputs": [
        {
          "internalType": "address",
          "name": "wallet_",
          "type": "address"
        }
      ],
      "name": "addToDenyList",
      "outputs": [],
      "stateMutability": "nonpayable",
      "type": "function"
    },
    {
      "inputs": [
        {
          "internalType": "address",
          "name": "wallet_",
          "type": "address"
        }
      ],
      "name": "removeFromDenyList",
      "outputs": [],
      "stateMutability": "nonpayable",
      "type": "function"
    },
    {
      "inputs": [
        {
          "internalType": "address",
          "name": "wallet_",
          "type": "address"
        }
      ],
      "name": "checkDenyList",
      "outputs": [
        {
          "internalType": "bool",
          "name": "",
          "type": "bool"
        }
      ],
      "stateMutability": "view",
      "type": "function"
    },
    {
      "inputs": [],
      "name": "withdraw",
      "outputs": [],
      "stateMutability": "payable",
      "type": "function"
    },
    {
      "inputs": [
        {
          "internalType": "uint256",
          "name": "amountToMint_",
          "type": "uint256"
        }
      ],
      "name": "getAmountToPay",
      "outputs": [
        {
          "internalType": "uint256",
          "name": "",
          "type": "uint256"
        }
      ],
      "stateMutability": "view",
      "type": "function"
    },
    {
      "inputs": [],
      "name": "getCurrentPayRecipient",
      "outputs": [
        {
          "internalType": "address",
          "name": "",
          "type": "address"
        }
      ],
      "stateMutability": "view",
      "type": "function"
    },
    {
      "inputs": [
        {
          "internalType": "address",
          "name": "newPayRecipient_",
          "type": "address"
        }
      ],
      "name": "setCurrentPayRecipient",
      "outputs": [],
      "stateMutability": "nonpayable",
      "type": "function"
    }
  ],
  "bytecode": "0x60806040523480156200001157600080fd5b506040518060400160405280600581526020017f424952425a0000000000000000000000000000000000000000000000000000008152506040518060400160405280600581526020017f424952425a00000000000000000000000000000000000000000000000000000081525081600090816200008f919062000499565b508060019081620000a1919062000499565b505050620000c4620000b86200015160201b60201c565b6200015960201b60201c565b6115b3600d81905550670de0b6b3a7640000600a819055506000600b60006101000a81548160ff0219169083600281111562000105576200010462000580565b5b021790555030600e60006101000a81548173ffffffffffffffffffffffffffffffffffffffff021916908373ffffffffffffffffffffffffffffffffffffffff160217905550620005af565b600033905090565b6000600760009054906101000a900473ffffffffffffffffffffffffffffffffffffffff16905081600760006101000a81548173ffffffffffffffffffffffffffffffffffffffff021916908373ffffffffffffffffffffffffffffffffffffffff1602179055508173ffffffffffffffffffffffffffffffffffffffff168173ffffffffffffffffffffffffffffffffffffffff167f8be0079c531659141344cd1fd0a4f28419497f9722a3daafe3b4186f6b6457e060405160405180910390a35050565b600081519050919050565b7f4e487b7100000000000000000000000000000000000000000000000000000000600052604160045260246000fd5b7f4e487b7100000000000000000000000000000000000000000000000000000000600052602260045260246000fd5b60006002820490506001821680620002a157607f821691505b602082108103620002b757620002b662000259565b5b50919050565b60008190508160005260206000209050919050565b60006020601f8301049050919050565b600082821b905092915050565b600060088302620003217fffffffffffffffffffffffffffffffffffffffffffffffffffffffffffffffff82620002e2565b6200032d8683620002e2565b95508019841693508086168417925050509392505050565b6000819050919050565b6000819050919050565b60006200037a620003746200036e8462000345565b6200034f565b62000345565b9050919050565b6000819050919050565b620003968362000359565b620003ae620003a58262000381565b848454620002ef565b825550505050565b600090565b620003c5620003b6565b620003d28184846200038b565b505050565b5b81811015620003fa57620003ee600082620003bb565b600181019050620003d8565b5050565b601f82111562000449576200041381620002bd565b6200041e84620002d2565b810160208510156200042e578190505b620004466200043d85620002d2565b830182620003d7565b50505b505050565b600082821c905092915050565b60006200046e600019846008026200044e565b1980831691505092915050565b60006200048983836200045b565b9150826002028217905092915050565b620004a4826200021f565b67ffffffffffffffff811115620004c057620004bf6200022a565b5b620004cc825462000288565b620004d9828285620003fe565b600060209050601f831160018114620005115760008415620004fc578287015190505b6200050885826200047b565b86555062000578565b601f1984166200052186620002bd565b60005b828110156200054b5784890151825560018201915060208501945060208101905062000524565b868310156200056b578489015162000567601f8916826200045b565b8355505b6001600288020188555050505b505050505050565b7f4e487b7100000000000000000000000000000000000000000000000000000000600052602160045260246000fd5b6142fb80620005bf6000396000f3fe6080604052600436106101dc5760003560e01c806370a0823111610102578063b88d4fde11610095578063e985e9c511610064578063e985e9c51461065f578063f2fde38b1461069c578063f47ab680146106c5578063fd75b79314610702576101e3565b8063b88d4fde146105b4578063b903364c146105dd578063c87b56dd14610606578063d0def52114610643576101e3565b80639568dc0b116100d15780639568dc0b1461051957806395d89b411461053557806398d5fdca14610560578063a22cb4651461058b576101e3565b806370a0823114610471578063715018a6146104ae5780638da5cb5b146104c557806391b7f5ed146104f0576101e3565b80632d0af8db1161017a5780634c0f38c2116101495780634c0f38c2146103b55780634e69d560146103e05780636352211e1461040b5780636f8b44b014610448576101e3565b80632d0af8db146103305780632e49d78b146103595780633ccfd60b1461038257806342842e0e1461038c576101e3565b8063095ea7b3116101b6578063095ea7b31461028a57806311cd61ef146102b3578063215048cd146102de57806323b872dd14610307576101e3565b806301ffc9a7146101e557806306fdde0314610222578063081812fc1461024d576101e3565b366101e357005b005b3480156101f157600080fd5b5061020c600480360381019061020791906127d5565b61073f565b604051610219919061281d565b60405180910390f35b34801561022e57600080fd5b50610237610821565b60405161024491906128d1565b60405180910390f35b34801561025957600080fd5b50610274600480360381019061026f9190612929565b6108b3565b6040516102819190612997565b60405180910390f35b34801561029657600080fd5b506102b160048036038101906102ac91906129de565b6108f9565b005b3480156102bf57600080fd5b506102c8610a10565b6040516102d59190612997565b60405180910390f35b3480156102ea57600080fd5b5061030560048036038101906103009190612a1e565b610a3a565b005b34801561031357600080fd5b5061032e60048036038101906103299190612a4b565b610a9d565b005b34801561033c57600080fd5b5061035760048036038101906103529190612a1e565b610afd565b005b34801561036557600080fd5b50610380600480360381019061037b9190612ac3565b610c13565b005b61038a610c90565b005b34801561039857600080fd5b506103b360048036038101906103ae9190612a4b565b610d24565b005b3480156103c157600080fd5b506103ca610d44565b6040516103d79190612aff565b60405180910390f35b3480156103ec57600080fd5b506103f5610d4e565b6040516104029190612b91565b60405180910390f35b34801561041757600080fd5b50610432600480360381019061042d9190612929565b610d65565b60405161043f9190612997565b60405180910390f35b34801561045457600080fd5b5061046f600480360381019061046a9190612929565b610e16565b005b34801561047d57600080fd5b5061049860048036038101906104939190612a1e565b610e63565b6040516104a59190612aff565b60405180910390f35b3480156104ba57600080fd5b506104c3610f1a565b005b3480156104d157600080fd5b506104da610f2e565b6040516104e79190612997565b60405180910390f35b3480156104fc57600080fd5b5061051760048036038101906105129190612929565b610f58565b005b610533600480360381019061052e9190612ce1565b610fa5565b005b34801561054157600080fd5b5061054a61105c565b60405161055791906128d1565b60405180910390f35b34801561056c57600080fd5b506105756110ee565b6040516105829190612aff565b60405180910390f35b34801561059757600080fd5b506105b260048036038101906105ad9190612d7c565b6110f8565b005b3480156105c057600080fd5b506105db60048036038101906105d69190612e5d565b61110e565b005b3480156105e957600080fd5b5061060460048036038101906105ff9190612a1e565b611170565b005b34801561061257600080fd5b5061062d60048036038101906106289190612929565b61120a565b60405161063a91906128d1565b60405180910390f35b61065d60048036038101906106589190612ee0565b61131c565b005b34801561066b57600080fd5b5061068660048036038101906106819190612f3c565b6113a0565b604051610693919061281d565b60405180910390f35b3480156106a857600080fd5b506106c360048036038101906106be9190612a1e565b611434565b005b3480156106d157600080fd5b506106ec60048036038101906106e79190612929565b6114b7565b6040516106f99190612aff565b60405180910390f35b34801561070e57600080fd5b5061072960048036038101906107249190612a1e565b6114ce565b604051610736919061281d565b60405180910390f35b60007f80ac58cd000000000000000000000000000000000000000000000000000000007bffffffffffffffffffffffffffffffffffffffffffffffffffffffff1916827bffffffffffffffffffffffffffffffffffffffffffffffffffffffff1916148061080a57507f5b5e139f000000000000000000000000000000000000000000000000000000007bffffffffffffffffffffffffffffffffffffffffffffffffffffffff1916827bffffffffffffffffffffffffffffffffffffffffffffffffffffffff1916145b8061081a575061081982611524565b5b9050919050565b60606000805461083090612fab565b80601f016020809104026020016040519081016040528092919081815260200182805461085c90612fab565b80156108a95780601f1061087e576101008083540402835291602001916108a9565b820191906000526020600020905b81548152906001019060200180831161088c57829003601f168201915b5050505050905090565b60006108be8261158e565b6004600083815260200190815260200160002060009054906101000a900473ffffffffffffffffffffffffffffffffffffffff169050919050565b600061090482610d65565b90508073ffffffffffffffffffffffffffffffffffffffff168373ffffffffffffffffffffffffffffffffffffffff1603610974576040517f08c379a000000000000000000000000000000000000000000000000000000000815260040161096b9061304e565b60405180910390fd5b8073ffffffffffffffffffffffffffffffffffffffff166109936115d9565b73ffffffffffffffffffffffffffffffffffffffff1614806109c257506109c1816109bc6115d9565b6113a0565b5b610a01576040517f08c379a00000000000000000000000000000000000000000000000000000000081526004016109f8906130e0565b60405180910390fd5b610a0b83836115e1565b505050565b6000600e60009054906101000a900473ffffffffffffffffffffffffffffffffffffffff16905090565b610a4261169a565b6000600c60008373ffffffffffffffffffffffffffffffffffffffff1673ffffffffffffffffffffffffffffffffffffffff16815260200190815260200160002060006101000a81548160ff02191690831515021790555050565b610aae610aa86115d9565b82611718565b610aed576040517f08c379a0000000000000000000000000000000000000000000000000000000008152600401610ae490613172565b60405180910390fd5b610af88383836117ad565b505050565b610b0561169a565b600073ffffffffffffffffffffffffffffffffffffffff168173ffffffffffffffffffffffffffffffffffffffff1603610b74576040517f08c379a0000000000000000000000000000000000000000000000000000000008152600401610b6b90613204565b60405180910390fd5b7fbaa12feefa3dad5a36b25cca2ae7d53d0141e6c56637ccbbaf1fb7d60c4cca6d600e60009054906101000a900473ffffffffffffffffffffffffffffffffffffffff1682604051610bc7929190613283565b60405180910390a180600e60006101000a81548173ffffffffffffffffffffffffffffffffffffffff021916908373ffffffffffffffffffffffffffffffffffffffff16021790555050565b610c1b61169a565b7f5381981cd2452c800c959097fa1cf57df0756b19bd0e1e1e3977c06b2d4dbad7600b60009054906101000a900460ff1682604051610c5b9291906132ac565b60405180910390a180600b60006101000a81548160ff02191690836002811115610c8857610c87612b1a565b5b021790555050565b610c9861169a565b6000610ca2610f2e565b905060004790508173ffffffffffffffffffffffffffffffffffffffff166108fc829081150290604051600060405180830381858888f19350505050610ce757600080fd5b7fdd14374458d4625d231f09a9f173ecc29d3953e238011f5ff6d06e94ac6b2bcd8282604051610d189291906132d5565b60405180910390a15050565b610d3f8383836040518060200160405280600081525061110e565b505050565b6000600d54905090565b6000600b60009054906101000a900460ff16905090565b6000806002600084815260200190815260200160002060009054906101000a900473ffffffffffffffffffffffffffffffffffffffff169050600073ffffffffffffffffffffffffffffffffffffffff168173ffffffffffffffffffffffffffffffffffffffff1603610e0d576040517f08c379a0000000000000000000000000000000000000000000000000000000008152600401610e049061334a565b60405180910390fd5b80915050919050565b610e1e61169a565b7fa626f93317e2474b716846a09cf0e28aacb96052643b252fe97704208fecf9b5600d5482604051610e5192919061336a565b60405180910390a180600d8190555050565b60008073ffffffffffffffffffffffffffffffffffffffff168273ffffffffffffffffffffffffffffffffffffffff1603610ed3576040517f08c379a0000000000000000000000000000000000000000000000000000000008152600401610eca90613405565b60405180910390fd5b600360008373ffffffffffffffffffffffffffffffffffffffff1673ffffffffffffffffffffffffffffffffffffffff168152602001908152602001600020549050919050565b610f2261169a565b610f2c6000611a13565b565b6000600760009054906101000a900473ffffffffffffffffffffffffffffffffffffffff16905090565b610f6061169a565b7f39c0d3343dcaca0906e186779c0e59726f88182c606a921871c82eac377229fd600a5482604051610f9392919061336a565b60405180910390a180600a8190555050565b610faf8383611ad9565b600082600a54610fbf9190613454565b9050600e60009054906101000a900473ffffffffffffffffffffffffffffffffffffffff1673ffffffffffffffffffffffffffffffffffffffff166108fc829081150290604051600060405180830381858888f19350505050158015611029573d6000803e3d6000fd5b506000600190505b838111611055576110428584611e28565b808061104d906134ae565b915050611031565b5050505050565b60606001805461106b90612fab565b80601f016020809104026020016040519081016040528092919081815260200182805461109790612fab565b80156110e45780601f106110b9576101008083540402835291602001916110e4565b820191906000526020600020905b8154815290600101906020018083116110c757829003601f168201915b5050505050905090565b6000600a54905090565b61110a6111036115d9565b8383611ebf565b5050565b61111f6111196115d9565b83611718565b61115e576040517f08c379a000000000000000000000000000000000000000000000000000000000815260040161115590613172565b60405180910390fd5b61116a8484848461202b565b50505050565b61117861169a565b6001600c60008373ffffffffffffffffffffffffffffffffffffffff1673ffffffffffffffffffffffffffffffffffffffff16815260200190815260200160002060006101000a81548160ff0219169083151502179055507ffc8112efc8569faaf10e4c68d9353dfe9956489ea82f4e30bc716488aed4fb56816040516111ff9190612997565b60405180910390a150565b60606112158261158e565b600060066000848152602001908152602001600020805461123590612fab565b80601f016020809104026020016040519081016040528092919081815260200182805461126190612fab565b80156112ae5780601f10611283576101008083540402835291602001916112ae565b820191906000526020600020905b81548152906001019060200180831161129157829003601f168201915b5050505050905060006112bf612087565b905060008151036112d4578192505050611317565b6000825111156113095780826040516020016112f1929190613532565b60405160208183030381529060405292505050611317565b6113128461209e565b925050505b919050565b611327826001611ad9565b600e60009054906101000a900473ffffffffffffffffffffffffffffffffffffffff1673ffffffffffffffffffffffffffffffffffffffff166108fc600a549081150290604051600060405180830381858888f19350505050158015611391573d6000803e3d6000fd5b5061139c8282611e28565b5050565b6000600560008473ffffffffffffffffffffffffffffffffffffffff1673ffffffffffffffffffffffffffffffffffffffff16815260200190815260200160002060008373ffffffffffffffffffffffffffffffffffffffff1673ffffffffffffffffffffffffffffffffffffffff16815260200190815260200160002060009054906101000a900460ff16905092915050565b61143c61169a565b600073ffffffffffffffffffffffffffffffffffffffff168173ffffffffffffffffffffffffffffffffffffffff16036114ab576040517f08c379a00000000000000000000000000000000000000000000000000000000081526004016114a2906135c8565b60405180910390fd5b6114b481611a13565b50565b600081600a546114c79190613454565b9050919050565b6000600c60008373ffffffffffffffffffffffffffffffffffffffff1673ffffffffffffffffffffffffffffffffffffffff16815260200190815260200160002060009054906101000a900460ff169050919050565b60007f01ffc9a7000000000000000000000000000000000000000000000000000000007bffffffffffffffffffffffffffffffffffffffffffffffffffffffff1916827bffffffffffffffffffffffffffffffffffffffffffffffffffffffff1916149050919050565b61159781612106565b6115d6576040517f08c379a00000000000000000000000000000000000000000000000000000000081526004016115cd9061334a565b60405180910390fd5b50565b600033905090565b816004600083815260200190815260200160002060006101000a81548173ffffffffffffffffffffffffffffffffffffffff021916908373ffffffffffffffffffffffffffffffffffffffff160217905550808273ffffffffffffffffffffffffffffffffffffffff1661165483610d65565b73ffffffffffffffffffffffffffffffffffffffff167f8c5be1e5ebec7d5bd14f71427d1e84f3dd0314c0f7b2291e5b200ac8c7c3b92560405160405180910390a45050565b6116a26115d9565b73ffffffffffffffffffffffffffffffffffffffff166116c0610f2e565b73ffffffffffffffffffffffffffffffffffffffff1614611716576040517f08c379a000000000000000000000000000000000000000000000000000000000815260040161170d90613634565b60405180910390fd5b565b60008061172483610d65565b90508073ffffffffffffffffffffffffffffffffffffffff168473ffffffffffffffffffffffffffffffffffffffff161480611766575061176581856113a0565b5b806117a457508373ffffffffffffffffffffffffffffffffffffffff1661178c846108b3565b73ffffffffffffffffffffffffffffffffffffffff16145b91505092915050565b8273ffffffffffffffffffffffffffffffffffffffff166117cd82610d65565b73ffffffffffffffffffffffffffffffffffffffff1614611823576040517f08c379a000000000000000000000000000000000000000000000000000000000815260040161181a906136c6565b60405180910390fd5b600073ffffffffffffffffffffffffffffffffffffffff168273ffffffffffffffffffffffffffffffffffffffff1603611892576040517f08c379a000000000000000000000000000000000000000000000000000000000815260040161188990613758565b60405180910390fd5b61189d838383612172565b6118a86000826115e1565b6001600360008573ffffffffffffffffffffffffffffffffffffffff1673ffffffffffffffffffffffffffffffffffffffff16815260200190815260200160002060008282546118f89190613778565b925050819055506001600360008473ffffffffffffffffffffffffffffffffffffffff1673ffffffffffffffffffffffffffffffffffffffff168152602001908152602001600020600082825461194f91906137ac565b92505081905550816002600083815260200190815260200160002060006101000a81548173ffffffffffffffffffffffffffffffffffffffff021916908373ffffffffffffffffffffffffffffffffffffffff160217905550808273ffffffffffffffffffffffffffffffffffffffff168473ffffffffffffffffffffffffffffffffffffffff167fddf252ad1be2c89b69c2b068fc378daa952ba7f163c4a11628f55a4df523b3ef60405160405180910390a4611a0e838383612177565b505050565b6000600760009054906101000a900473ffffffffffffffffffffffffffffffffffffffff16905081600760006101000a81548173ffffffffffffffffffffffffffffffffffffffff021916908373ffffffffffffffffffffffffffffffffffffffff1602179055508173ffffffffffffffffffffffffffffffffffffffff168173ffffffffffffffffffffffffffffffffffffffff167f8be0079c531659141344cd1fd0a4f28419497f9722a3daafe3b4186f6b6457e060405160405180910390a35050565b60006002811115611aed57611aec612b1a565b5b600b60009054906101000a900460ff166002811115611b0f57611b0e612b1a565b5b14611b4f576040517f08c379a0000000000000000000000000000000000000000000000000000000008152600401611b4690613874565b60405180910390fd5b60008111611b92576040517f08c379a0000000000000000000000000000000000000000000000000000000008152600401611b8990613906565b60405180910390fd5b600a811115611bd6576040517f08c379a0000000000000000000000000000000000000000000000000000000008152600401611bcd90613998565b60405180910390fd5b600073ffffffffffffffffffffffffffffffffffffffff168273ffffffffffffffffffffffffffffffffffffffff1603611c45576040517f08c379a0000000000000000000000000000000000000000000000000000000008152600401611c3c90613a2a565b60405180910390fd5b6000600960008473ffffffffffffffffffffffffffffffffffffffff1673ffffffffffffffffffffffffffffffffffffffff168152602001908152602001600020805490509050600a8282611c9a91906137ac565b1115611cdb576040517f08c379a0000000000000000000000000000000000000000000000000000000008152600401611cd290613abc565b60405180910390fd5b60001515600c60008573ffffffffffffffffffffffffffffffffffffffff1673ffffffffffffffffffffffffffffffffffffffff16815260200190815260200160002060009054906101000a900460ff16151514611d6e576040517f08c379a0000000000000000000000000000000000000000000000000000000008152600401611d6590613b28565b60405180910390fd5b6000611d7a600861217c565b9050600d548382611d8b91906137ac565b1115611dcc576040517f08c379a0000000000000000000000000000000000000000000000000000000008152600401611dc390613b94565b60405180910390fd5b600083600a54611ddc9190613454565b905080341015611e21576040517f08c379a0000000000000000000000000000000000000000000000000000000008152600401611e1890613c26565b60405180910390fd5b5050505050565b6000611e34600861217c565b9050611e40838261218a565b611e4a81836121a8565b611e546008612215565b600960008473ffffffffffffffffffffffffffffffffffffffff1673ffffffffffffffffffffffffffffffffffffffff168152602001908152602001600020819080600181540180825580915050600190039060005260206000200160009091909190915055505050565b8173ffffffffffffffffffffffffffffffffffffffff168373ffffffffffffffffffffffffffffffffffffffff1603611f2d576040517f08c379a0000000000000000000000000000000000000000000000000000000008152600401611f2490613c92565b60405180910390fd5b80600560008573ffffffffffffffffffffffffffffffffffffffff1673ffffffffffffffffffffffffffffffffffffffff16815260200190815260200160002060008473ffffffffffffffffffffffffffffffffffffffff1673ffffffffffffffffffffffffffffffffffffffff16815260200190815260200160002060006101000a81548160ff0219169083151502179055508173ffffffffffffffffffffffffffffffffffffffff168373ffffffffffffffffffffffffffffffffffffffff167f17307eab39ab6107e8899845ad3d59bd9653f200f220920489ca2b5937696c318360405161201e919061281d565b60405180910390a3505050565b6120368484846117ad565b6120428484848461222b565b612081576040517f08c379a000000000000000000000000000000000000000000000000000000000815260040161207890613d24565b60405180910390fd5b50505050565b606060405180602001604052806000815250905090565b60606120a98261158e565b60006120b3612087565b905060008151116120d357604051806020016040528060008152506120fe565b806120dd846123b2565b6040516020016120ee929190613532565b6040516020818303038152906040525b915050919050565b60008073ffffffffffffffffffffffffffffffffffffffff166002600084815260200190815260200160002060009054906101000a900473ffffffffffffffffffffffffffffffffffffffff1673ffffffffffffffffffffffffffffffffffffffff1614159050919050565b505050565b505050565b600081600001549050919050565b6121a4828260405180602001604052806000815250612512565b5050565b6121b182612106565b6121f0576040517f08c379a00000000000000000000000000000000000000000000000000000000081526004016121e790613db6565b60405180910390fd5b806006600084815260200190815260200160002090816122109190613f78565b505050565b6001816000016000828254019250508190555050565b600061224c8473ffffffffffffffffffffffffffffffffffffffff1661256d565b156123a5578373ffffffffffffffffffffffffffffffffffffffff1663150b7a026122756115d9565b8786866040518563ffffffff1660e01b8152600401612297949392919061409f565b6020604051808303816000875af19250505080156122d357506040513d601f19601f820116820180604052508101906122d09190614100565b60015b612355573d8060008114612303576040519150601f19603f3d011682016040523d82523d6000602084013e612308565b606091505b50600081510361234d576040517f08c379a000000000000000000000000000000000000000000000000000000000815260040161234490613d24565b60405180910390fd5b805181602001fd5b63150b7a0260e01b7bffffffffffffffffffffffffffffffffffffffffffffffffffffffff1916817bffffffffffffffffffffffffffffffffffffffffffffffffffffffff1916149150506123aa565b600190505b949350505050565b6060600082036123f9576040518060400160405280600181526020017f3000000000000000000000000000000000000000000000000000000000000000815250905061250d565b600082905060005b6000821461242b578080612414906134ae565b915050600a82612424919061415c565b9150612401565b60008167ffffffffffffffff81111561244757612446612bb6565b5b6040519080825280601f01601f1916602001820160405280156124795781602001600182028036833780820191505090505b5090505b60008514612506576001826124929190613778565b9150600a856124a1919061418d565b60306124ad91906137ac565b60f81b8183815181106124c3576124c26141be565b5b60200101907effffffffffffffffffffffffffffffffffffffffffffffffffffffffffffff1916908160001a905350600a856124ff919061415c565b945061247d565b8093505050505b919050565b61251c8383612590565b612529600084848461222b565b612568576040517f08c379a000000000000000000000000000000000000000000000000000000000815260040161255f90613d24565b60405180910390fd5b505050565b6000808273ffffffffffffffffffffffffffffffffffffffff163b119050919050565b600073ffffffffffffffffffffffffffffffffffffffff168273ffffffffffffffffffffffffffffffffffffffff16036125ff576040517f08c379a00000000000000000000000000000000000000000000000000000000081526004016125f690614239565b60405180910390fd5b61260881612106565b15612648576040517f08c379a000000000000000000000000000000000000000000000000000000000815260040161263f906142a5565b60405180910390fd5b61265460008383612172565b6001600360008473ffffffffffffffffffffffffffffffffffffffff1673ffffffffffffffffffffffffffffffffffffffff16815260200190815260200160002060008282546126a491906137ac565b92505081905550816002600083815260200190815260200160002060006101000a81548173ffffffffffffffffffffffffffffffffffffffff021916908373ffffffffffffffffffffffffffffffffffffffff160217905550808273ffffffffffffffffffffffffffffffffffffffff16600073ffffffffffffffffffffffffffffffffffffffff167fddf252ad1be2c89b69c2b068fc378daa952ba7f163c4a11628f55a4df523b3ef60405160405180910390a461276560008383612177565b5050565b6000604051905090565b600080fd5b600080fd5b60007fffffffff0000000000000000000000000000000000000000000000000000000082169050919050565b6127b28161277d565b81146127bd57600080fd5b50565b6000813590506127cf816127a9565b92915050565b6000602082840312156127eb576127ea612773565b5b60006127f9848285016127c0565b91505092915050565b60008115159050919050565b61281781612802565b82525050565b6000602082019050612832600083018461280e565b92915050565b600081519050919050565b600082825260208201905092915050565b60005b83811015612872578082015181840152602081019050612857565b83811115612881576000848401525b50505050565b6000601f19601f8301169050919050565b60006128a382612838565b6128ad8185612843565b93506128bd818560208601612854565b6128c681612887565b840191505092915050565b600060208201905081810360008301526128eb8184612898565b905092915050565b6000819050919050565b612906816128f3565b811461291157600080fd5b50565b600081359050612923816128fd565b92915050565b60006020828403121561293f5761293e612773565b5b600061294d84828501612914565b91505092915050565b600073ffffffffffffffffffffffffffffffffffffffff82169050919050565b600061298182612956565b9050919050565b61299181612976565b82525050565b60006020820190506129ac6000830184612988565b92915050565b6129bb81612976565b81146129c657600080fd5b50565b6000813590506129d8816129b2565b92915050565b600080604083850312156129f5576129f4612773565b5b6000612a03858286016129c9565b9250506020612a1485828601612914565b9150509250929050565b600060208284031215612a3457612a33612773565b5b6000612a42848285016129c9565b91505092915050565b600080600060608486031215612a6457612a63612773565b5b6000612a72868287016129c9565b9350506020612a83868287016129c9565b9250506040612a9486828701612914565b9150509250925092565b60038110612aab57600080fd5b50565b600081359050612abd81612a9e565b92915050565b600060208284031215612ad957612ad8612773565b5b6000612ae784828501612aae565b91505092915050565b612af9816128f3565b82525050565b6000602082019050612b146000830184612af0565b92915050565b7f4e487b7100000000000000000000000000000000000000000000000000000000600052602160045260246000fd5b60038110612b5a57612b59612b1a565b5b50565b6000819050612b6b82612b49565b919050565b6000612b7b82612b5d565b9050919050565b612b8b81612b70565b82525050565b6000602082019050612ba66000830184612b82565b92915050565b600080fd5b600080fd5b7f4e487b7100000000000000000000000000000000000000000000000000000000600052604160045260246000fd5b612bee82612887565b810181811067ffffffffffffffff82111715612c0d57612c0c612bb6565b5b80604052505050565b6000612c20612769565b9050612c2c8282612be5565b919050565b600067ffffffffffffffff821115612c4c57612c4b612bb6565b5b612c5582612887565b9050602081019050919050565b82818337600083830152505050565b6000612c84612c7f84612c31565b612c16565b905082815260208101848484011115612ca057612c9f612bb1565b5b612cab848285612c62565b509392505050565b600082601f830112612cc857612cc7612bac565b5b8135612cd8848260208601612c71565b91505092915050565b600080600060608486031215612cfa57612cf9612773565b5b6000612d08868287016129c9565b9350506020612d1986828701612914565b925050604084013567ffffffffffffffff811115612d3a57612d39612778565b5b612d4686828701612cb3565b9150509250925092565b612d5981612802565b8114612d6457600080fd5b50565b600081359050612d7681612d50565b92915050565b60008060408385031215612d9357612d92612773565b5b6000612da1858286016129c9565b9250506020612db285828601612d67565b9150509250929050565b600067ffffffffffffffff821115612dd757612dd6612bb6565b5b612de082612887565b9050602081019050919050565b6000612e00612dfb84612dbc565b612c16565b905082815260208101848484011115612e1c57612e1b612bb1565b5b612e27848285612c62565b509392505050565b600082601f830112612e4457612e43612bac565b5b8135612e54848260208601612ded565b91505092915050565b60008060008060808587031215612e7757612e76612773565b5b6000612e85878288016129c9565b9450506020612e96878288016129c9565b9350506040612ea787828801612914565b925050606085013567ffffffffffffffff811115612ec857612ec7612778565b5b612ed487828801612e2f565b91505092959194509250565b60008060408385031215612ef757612ef6612773565b5b6000612f05858286016129c9565b925050602083013567ffffffffffffffff811115612f2657612f25612778565b5b612f3285828601612cb3565b9150509250929050565b60008060408385031215612f5357612f52612773565b5b6000612f61858286016129c9565b9250506020612f72858286016129c9565b9150509250929050565b7f4e487b7100000000000000000000000000000000000000000000000000000000600052602260045260246000fd5b60006002820490506001821680612fc357607f821691505b602082108103612fd657612fd5612f7c565b5b50919050565b7f4552433732313a20617070726f76616c20746f2063757272656e74206f776e6560008201527f7200000000000000000000000000000000000000000000000000000000000000602082015250565b6000613038602183612843565b915061304382612fdc565b604082019050919050565b600060208201905081810360008301526130678161302b565b9050919050565b7f4552433732313a20617070726f76652063616c6c6572206973206e6f7420746f60008201527f6b656e206f776e6572206e6f7220617070726f76656420666f7220616c6c0000602082015250565b60006130ca603e83612843565b91506130d58261306e565b604082019050919050565b600060208201905081810360008301526130f9816130bd565b9050919050565b7f4552433732313a2063616c6c6572206973206e6f7420746f6b656e206f776e6560008201527f72206e6f7220617070726f766564000000000000000000000000000000000000602082015250565b600061315c602e83612843565b915061316782613100565b604082019050919050565b6000602082019050818103600083015261318b8161314f565b9050919050565b7f4552524f523a204973206e6f7420706f73737369626c6520746f20736574207260008201527f6563697069656e74206f66207061792030206164647265737300000000000000602082015250565b60006131ee603983612843565b91506131f982613192565b604082019050919050565b6000602082019050818103600083015261321d816131e1565b9050919050565b6000819050919050565b600061324961324461323f84612956565b613224565b612956565b9050919050565b600061325b8261322e565b9050919050565b600061326d82613250565b9050919050565b61327d81613262565b82525050565b60006040820190506132986000830185613274565b6132a56020830184612988565b9392505050565b60006040820190506132c16000830185612b82565b6132ce6020830184612b82565b9392505050565b60006040820190506132ea6000830185612988565b6132f76020830184612af0565b9392505050565b7f4552433732313a20696e76616c696420746f6b656e2049440000000000000000600082015250565b6000613334601883612843565b915061333f826132fe565b602082019050919050565b6000602082019050818103600083015261336381613327565b9050919050565b600060408201905061337f6000830185612af0565b61338c6020830184612af0565b9392505050565b7f4552433732313a2061646472657373207a65726f206973206e6f74206120766160008201527f6c6964206f776e65720000000000000000000000000000000000000000000000602082015250565b60006133ef602983612843565b91506133fa82613393565b604082019050919050565b6000602082019050818103600083015261341e816133e2565b9050919050565b7f4e487b7100000000000000000000000000000000000000000000000000000000600052601160045260246000fd5b600061345f826128f3565b915061346a836128f3565b9250817fffffffffffffffffffffffffffffffffffffffffffffffffffffffffffffffff04831182151516156134a3576134a2613425565b5b828202905092915050565b60006134b9826128f3565b91507fffffffffffffffffffffffffffffffffffffffffffffffffffffffffffffffff82036134eb576134ea613425565b5b600182019050919050565b600081905092915050565b600061350c82612838565b61351681856134f6565b9350613526818560208601612854565b80840191505092915050565b600061353e8285613501565b915061354a8284613501565b91508190509392505050565b7f4f776e61626c653a206e6577206f776e657220697320746865207a65726f206160008201527f6464726573730000000000000000000000000000000000000000000000000000602082015250565b60006135b2602683612843565b91506135bd82613556565b604082019050919050565b600060208201905081810360008301526135e1816135a5565b9050919050565b7f4f776e61626c653a2063616c6c6572206973206e6f7420746865206f776e6572600082015250565b600061361e602083612843565b9150613629826135e8565b602082019050919050565b6000602082019050818103600083015261364d81613611565b9050919050565b7f4552433732313a207472616e736665722066726f6d20696e636f72726563742060008201527f6f776e6572000000000000000000000000000000000000000000000000000000602082015250565b60006136b0602583612843565b91506136bb82613654565b604082019050919050565b600060208201905081810360008301526136df816136a3565b9050919050565b7f4552433732313a207472616e7366657220746f20746865207a65726f2061646460008201527f7265737300000000000000000000000000000000000000000000000000000000602082015250565b6000613742602483612843565b915061374d826136e6565b604082019050919050565b6000602082019050818103600083015261377181613735565b9050919050565b6000613783826128f3565b915061378e836128f3565b9250828210156137a1576137a0613425565b5b828203905092915050565b60006137b7826128f3565b91506137c2836128f3565b9250827fffffffffffffffffffffffffffffffffffffffffffffffffffffffffffffffff038211156137f7576137f6613425565b5b828201905092915050565b7f4552524f523a20537461747573206f6620636f6e7472616374206973206e6f7460008201527f2061637469766500000000000000000000000000000000000000000000000000602082015250565b600061385e602783612843565b915061386982613802565b604082019050919050565b6000602082019050818103600083015261388d81613851565b9050919050565b7f4552524f523a20416d6f756e74204e465420746f206d696e74206973207a657260008201527f6f00000000000000000000000000000000000000000000000000000000000000602082015250565b60006138f0602183612843565b91506138fb82613894565b604082019050919050565b6000602082019050818103600083015261391f816138e3565b9050919050565b7f4552524f523a20416d6f756e74204e465420746f206d696e74206973206f766560008201527f72206d6178000000000000000000000000000000000000000000000000000000602082015250565b6000613982602583612843565b915061398d82613926565b604082019050919050565b600060208201905081810360008301526139b181613975565b9050919050565b7f4552524f523a2057616c6c65742061646472657373206973206e65656420746f60008201527f206265206469666572656e742030000000000000000000000000000000000000602082015250565b6000613a14602e83612843565b9150613a1f826139b8565b604082019050919050565b60006020820190508181036000830152613a4381613a07565b9050919050565b7f4552524f523a204973206e6f7420706f737369626c65206d696e74207468697360008201527f20616d6f756e74206f66204e465420746f20746869732077616c6c6574000000602082015250565b6000613aa6603d83612843565b9150613ab182613a4a565b604082019050919050565b60006020820190508181036000830152613ad581613a99565b9050919050565b7f4552524f523a2057616c6c657420697320696e2064656e79206c697374000000600082015250565b6000613b12601d83612843565b9150613b1d82613adc565b602082019050919050565b60006020820190508181036000830152613b4181613b05565b9050919050565b7f4552524f523a20546f74616c20737570706c792064656e696564000000000000600082015250565b6000613b7e601a83612843565b9150613b8982613b48565b602082019050919050565b60006020820190508181036000830152613bad81613b71565b9050919050565b7f4552524f523a20457468657220616d6f756e74206973206c6f776572206f662060008201527f7265717569726564000000000000000000000000000000000000000000000000602082015250565b6000613c10602883612843565b9150613c1b82613bb4565b604082019050919050565b60006020820190508181036000830152613c3f81613c03565b9050919050565b7f4552433732313a20617070726f766520746f2063616c6c657200000000000000600082015250565b6000613c7c601983612843565b9150613c8782613c46565b602082019050919050565b60006020820190508181036000830152613cab81613c6f565b9050919050565b7f4552433732313a207472616e7366657220746f206e6f6e20455243373231526560008201527f63656976657220696d706c656d656e7465720000000000000000000000000000602082015250565b6000613d0e603283612843565b9150613d1982613cb2565b604082019050919050565b60006020820190508181036000830152613d3d81613d01565b9050919050565b7f45524337323155524953746f726167653a2055524920736574206f66206e6f6e60008201527f6578697374656e7420746f6b656e000000000000000000000000000000000000602082015250565b6000613da0602e83612843565b9150613dab82613d44565b604082019050919050565b60006020820190508181036000830152613dcf81613d93565b9050919050565b60008190508160005260206000209050919050565b60006020601f8301049050919050565b600082821b905092915050565b600060088302613e387fffffffffffffffffffffffffffffffffffffffffffffffffffffffffffffffff82613dfb565b613e428683613dfb565b95508019841693508086168417925050509392505050565b6000613e75613e70613e6b846128f3565b613224565b6128f3565b9050919050565b6000819050919050565b613e8f83613e5a565b613ea3613e9b82613e7c565b848454613e08565b825550505050565b600090565b613eb8613eab565b613ec3818484613e86565b505050565b5b81811015613ee757613edc600082613eb0565b600181019050613ec9565b5050565b601f821115613f2c57613efd81613dd6565b613f0684613deb565b81016020851015613f15578190505b613f29613f2185613deb565b830182613ec8565b50505b505050565b600082821c905092915050565b6000613f4f60001984600802613f31565b1980831691505092915050565b6000613f688383613f3e565b9150826002028217905092915050565b613f8182612838565b67ffffffffffffffff811115613f9a57613f99612bb6565b5b613fa48254612fab565b613faf828285613eeb565b600060209050601f831160018114613fe25760008415613fd0578287015190505b613fda8582613f5c565b865550614042565b601f198416613ff086613dd6565b60005b8281101561401857848901518255600182019150602085019450602081019050613ff3565b868310156140355784890151614031601f891682613f3e565b8355505b6001600288020188555050505b505050505050565b600081519050919050565b600082825260208201905092915050565b60006140718261404a565b61407b8185614055565b935061408b818560208601612854565b61409481612887565b840191505092915050565b60006080820190506140b46000830187612988565b6140c16020830186612988565b6140ce6040830185612af0565b81810360608301526140e08184614066565b905095945050505050565b6000815190506140fa816127a9565b92915050565b60006020828403121561411657614115612773565b5b6000614124848285016140eb565b91505092915050565b7f4e487b7100000000000000000000000000000000000000000000000000000000600052601260045260246000fd5b6000614167826128f3565b9150614172836128f3565b9250826141825761418161412d565b5b828204905092915050565b6000614198826128f3565b91506141a3836128f3565b9250826141b3576141b261412d565b5b828206905092915050565b7f4e487b7100000000000000000000000000000000000000000000000000000000600052603260045260246000fd5b7f4552433732313a206d696e7420746f20746865207a65726f2061646472657373600082015250565b6000614223602083612843565b915061422e826141ed565b602082019050919050565b6000602082019050818103600083015261425281614216565b9050919050565b7f4552433732313a20746f6b656e20616c7265616479206d696e74656400000000600082015250565b600061428f601c83612843565b915061429a82614259565b602082019050919050565b600060208201905081810360008301526142be81614282565b905091905056fea26469706673582212207fd843d59e32a26c5a46398028e90b3937aa73b98ab4dda6c613690fb643c65064736f6c634300080f0033",
  "immutableReferences": {},
  "source": "/*************************************************************************************\r\n *\r\n * Autor & Owner: Birbz\r\n *\r\n * 446576656c6f7065723a20416e746f6e20506f6c656e79616b61 *****************************/\r\n\r\n// SPDX-License-Identifier: MIT\r\npragma solidity 0.8.15;\r\n\r\nimport \"./ERC721URIStorage.sol\";\r\nimport \"./Counters.sol\";\r\nimport \"./Ownable.sol\";\r\n\r\ncontract BirbzNFTToken is ERC721URIStorage, Ownable {\r\n    // Enums\r\n\r\n    enum Status {\r\n        Active,\r\n        NotActive,\r\n        Paused\r\n    }\r\n\r\n    // Constants\r\n\r\n    uint256 private constant MAX_TOKENS_BY_WALLET = 10;\r\n    uint256 private constant MAX_AMOUNT_TO_MINT = 10;\r\n    uint256 private constant INITIAL_MAX_SUPPLY = 5555;\r\n    uint256 private constant DEFAULT_NFT_PRICE = 1 ether;\r\n\r\n    // Attributes & Properties\r\n\r\n    using Counters for Counters.Counter;\r\n    Counters.Counter private _tokenIds;\r\n    mapping(address => uint256[]) private _walletToTokens;\r\n    uint256 private _price;\r\n    Status private _status;\r\n    mapping(address => bool) private _denylist;\r\n    uint256 private _maxSupply;\r\n    // Who receive pay for NFT minting\r\n    address payable private _currentPayRecipient;\r\n\r\n    // Events\r\n\r\n    event NFTPriceChanged(uint256 oldPrice, uint256 newPrice);\r\n    event ContractStatusChanged(Status oldStatus, Status newStatus);\r\n    event MaxSupplyChanged(uint256 oldSupply, uint256 newSupply);\r\n    event WalletAddedToDenyList(address wallet);\r\n    event BalanceWithdrawed(address to, uint256 balance);\r\n    event PayRecipientChanged(address from, address to);\r\n\r\n    // Constructors\r\n\r\n    constructor() ERC721(\"BIRBZ\", \"BIRBZ\") {\r\n        _maxSupply = INITIAL_MAX_SUPPLY;\r\n        _price = DEFAULT_NFT_PRICE;\r\n        _status = Status.Active;\r\n        _currentPayRecipient = payable(address(this));\r\n    }\r\n\r\n    // Methods\r\n\r\n    // Check if is possible mint new NFT's\r\n    function _checkBeforeMint(address wallet_, uint256 amountToMint_)\r\n        private\r\n        view\r\n    {\r\n        // Contract status\r\n        require(\r\n            _status == Status.Active,\r\n            \"ERROR: Status of contract is not active\"\r\n        );\r\n        // Check amount to mint > 0\r\n        require(amountToMint_ > 0, \"ERROR: Amount NFT to mint is zero\");\r\n        // Check amount to mint\r\n        require(\r\n            amountToMint_ <= MAX_AMOUNT_TO_MINT,\r\n            \"ERROR: Amount NFT to mint is over max\"\r\n        );\r\n        // Check wallet address\r\n        require(\r\n            wallet_ != address(0),\r\n            \"ERROR: Wallet address is need to be diferent 0\"\r\n        );\r\n        // Check number of already minted plus new amount\r\n        uint256 currentAmount = _walletToTokens[wallet_].length;\r\n        require(\r\n            (currentAmount + amountToMint_) <= MAX_TOKENS_BY_WALLET,\r\n            \"ERROR: Is not possible mint this amount of NFT to this wallet\"\r\n        );\r\n        // Check deny list\r\n        require(_denylist[wallet_] == false, \"ERROR: Wallet is in deny list\");\r\n        // Check supply denied\r\n        uint256 currentSupply = _tokenIds.current();\r\n        require(\r\n            currentSupply + amountToMint_ <= _maxSupply,\r\n            \"ERROR: Total supply denied\"\r\n        );\r\n        // Check ether amount denied\r\n        uint256 requiredEthersAmount = _price * amountToMint_;\r\n        require(\r\n            msg.value >= requiredEthersAmount,\r\n            \"ERROR: Ether amount is lower of required\"\r\n        );\r\n    }\r\n\r\n    // Safe mint one NFT with indicated URI\r\n    function _mintOne(address wallet_, string memory tokenURI_) private {\r\n        uint256 newItemId = _tokenIds.current();\r\n        _safeMint(wallet_, newItemId);\r\n        _setTokenURI(newItemId, tokenURI_);\r\n        _tokenIds.increment();\r\n        _walletToTokens[wallet_].push(newItemId);\r\n    }\r\n\r\n    // Mint one NFT with indicated URI & check if is possilbe to mint\r\n    function mint(address wallet_, string memory tokenURI_) external payable {\r\n        _checkBeforeMint(wallet_, 1);\r\n        _currentPayRecipient.transfer(_price);\r\n        _mintOne(wallet_, tokenURI_);\r\n    }\r\n\r\n    // Mint multiple NFT's with indicated URI & check if is possilbe to mint\r\n    function mintMultiple(\r\n        address wallet_,\r\n        uint256 amountToMint_,\r\n        string memory tokenURI_\r\n    ) external payable {\r\n        _checkBeforeMint(wallet_, amountToMint_);\r\n        uint256 requiredEthersAmount = _price * amountToMint_;\r\n        _currentPayRecipient.transfer(requiredEthersAmount);\r\n        for (uint256 i = 1; i <= amountToMint_; i++) {\r\n            _mintOne(wallet_, tokenURI_);\r\n        }\r\n    }\r\n\r\n    // Get price of NFT\r\n    function getPrice() external view returns (uint256) {\r\n        return _price;\r\n    }\r\n\r\n    // Set price of NFT\r\n    function setPrice(uint256 price_) external onlyOwner {\r\n        emit NFTPriceChanged(_price, price_);\r\n        _price = price_;\r\n    }\r\n\r\n    // Set status of contract\r\n    function getStatus() external view returns (Status) {\r\n        return _status;\r\n    }\r\n\r\n    // Set status to contract\r\n    function setStatus(Status status_) external onlyOwner {\r\n        emit ContractStatusChanged(_status, status_);\r\n        _status = status_;\r\n    }\r\n\r\n    // Set status of contract\r\n    function getMaxSupply() external view returns (uint256) {\r\n        return _maxSupply;\r\n    }\r\n\r\n    // Get status of contract\r\n    function setMaxSupply(uint256 maxSupply_) external onlyOwner {\r\n        emit MaxSupplyChanged(_maxSupply, maxSupply_);\r\n        _maxSupply = maxSupply_;\r\n    }\r\n\r\n    // Add wallet to deny list, if wallet is in deny list, is not possible to mint NFT\r\n    function addToDenyList(address wallet_) external onlyOwner {\r\n        _denylist[wallet_] = true;\r\n        emit WalletAddedToDenyList(wallet_);\r\n    }\r\n\r\n    // Remove wallet from deny list, if wallet is in deny list, is not possible to mint NFT\r\n    function removeFromDenyList(address wallet_) external onlyOwner {\r\n        _denylist[wallet_] = false;\r\n    }\r\n\r\n    // Check if wallet in deny list, if wallet is in deny list, is not possible to mint NFT\r\n    function checkDenyList(address wallet_) external view returns (bool) {\r\n        return _denylist[wallet_];\r\n    }\r\n\r\n    // Withdraw all current ethers in balance of contract\r\n    function withdraw() external payable onlyOwner {\r\n        address to = owner();\r\n        uint256 balance = address(this).balance;\r\n        require(payable(to).send(balance));\r\n        emit BalanceWithdrawed(to, balance);\r\n    }\r\n\r\n    // Get amount to pay in ETH to mint NFT's\r\n    function getAmountToPay(uint256 amountToMint_)\r\n        external\r\n        view\r\n        returns (uint256)\r\n    {\r\n        return _price * amountToMint_;\r\n    }\r\n\r\n    function getCurrentPayRecipient() external view returns (address) {\r\n        return _currentPayRecipient;\r\n    }\r\n\r\n    function setCurrentPayRecipient(address newPayRecipient_)\r\n        external\r\n        onlyOwner\r\n    {\r\n        require(\r\n            newPayRecipient_ != address(0),\r\n            \"ERROR: Is not posssible to set recipient of pay 0 address\"\r\n        );\r\n        emit PayRecipientChanged(_currentPayRecipient, newPayRecipient_);\r\n        _currentPayRecipient = payable(newPayRecipient_);\r\n    }\r\n\r\n    fallback() external payable {}\r\n\r\n    receive() external payable {}\r\n}\r\n",
  "sourcePath": "C:\\GitHub\\birbz\\src\\contracts\\BirbzNFTToken.sol",
  "compiler": {
    "name": "solc",
    "version": "0.8.15+commit.e14f2714.Emscripten.clang"
  },
  "schemaVersion": "3.4.7",
  "updatedAt": "2022-07-06T10:54:42.652Z",
  "devdoc": {
    "kind": "dev",
    "methods": {
      "approve(address,uint256)": {
        "details": "See {IERC721-approve}."
      },
      "balanceOf(address)": {
        "details": "See {IERC721-balanceOf}."
      },
      "getApproved(uint256)": {
        "details": "See {IERC721-getApproved}."
      },
      "isApprovedForAll(address,address)": {
        "details": "See {IERC721-isApprovedForAll}."
      },
      "name()": {
        "details": "See {IERC721Metadata-name}."
      },
      "owner()": {
        "details": "Returns the address of the current owner."
      },
      "ownerOf(uint256)": {
        "details": "See {IERC721-ownerOf}."
      },
      "renounceOwnership()": {
        "details": "Leaves the contract without owner. It will not be possible to call `onlyOwner` functions anymore. Can only be called by the current owner. NOTE: Renouncing ownership will leave the contract without an owner, thereby removing any functionality that is only available to the owner."
      },
      "safeTransferFrom(address,address,uint256)": {
        "details": "See {IERC721-safeTransferFrom}."
      },
      "safeTransferFrom(address,address,uint256,bytes)": {
        "details": "See {IERC721-safeTransferFrom}."
      },
      "setApprovalForAll(address,bool)": {
        "details": "See {IERC721-setApprovalForAll}."
      },
      "supportsInterface(bytes4)": {
        "details": "See {IERC165-supportsInterface}."
      },
      "symbol()": {
        "details": "See {IERC721Metadata-symbol}."
      },
      "tokenURI(uint256)": {
        "details": "See {IERC721Metadata-tokenURI}."
      },
      "transferFrom(address,address,uint256)": {
        "details": "See {IERC721-transferFrom}."
      },
      "transferOwnership(address)": {
        "details": "Transfers ownership of the contract to a new account (`newOwner`). Can only be called by the current owner."
      }
    },
    "version": 1
  },
  "userdoc": {
    "kind": "user",
    "methods": {},
    "version": 1
  }
}