{
  "contractName": "BirbzNFTToken",
  "abi": [
    {
      "inputs": [],
      "stateMutability": "nonpayable",
      "type": "constructor"
    },
    {
      "anonymous": false,
      "inputs": [
        {
          "indexed": true,
          "internalType": "address",
          "name": "owner",
          "type": "address"
        },
        {
          "indexed": true,
          "internalType": "address",
          "name": "approved",
          "type": "address"
        },
        {
          "indexed": true,
          "internalType": "uint256",
          "name": "tokenId",
          "type": "uint256"
        }
      ],
      "name": "Approval",
      "type": "event"
    },
    {
      "anonymous": false,
      "inputs": [
        {
          "indexed": true,
          "internalType": "address",
          "name": "owner",
          "type": "address"
        },
        {
          "indexed": true,
          "internalType": "address",
          "name": "operator",
          "type": "address"
        },
        {
          "indexed": false,
          "internalType": "bool",
          "name": "approved",
          "type": "bool"
        }
      ],
      "name": "ApprovalForAll",
      "type": "event"
    },
    {
      "anonymous": false,
      "inputs": [
        {
          "indexed": false,
          "internalType": "address",
          "name": "to",
          "type": "address"
        },
        {
          "indexed": false,
          "internalType": "uint256",
          "name": "balance",
          "type": "uint256"
        }
      ],
      "name": "BalanceWithdrawed",
      "type": "event"
    },
    {
      "anonymous": false,
      "inputs": [
        {
          "indexed": false,
          "internalType": "enum BirbzNFTToken.Status",
          "name": "oldStatus",
          "type": "uint8"
        },
        {
          "indexed": false,
          "internalType": "enum BirbzNFTToken.Status",
          "name": "newStatus",
          "type": "uint8"
        }
      ],
      "name": "ContractStatusChanged",
      "type": "event"
    },
    {
      "anonymous": false,
      "inputs": [
        {
          "indexed": false,
          "internalType": "uint256",
          "name": "oldSupply",
          "type": "uint256"
        },
        {
          "indexed": false,
          "internalType": "uint256",
          "name": "newSupply",
          "type": "uint256"
        }
      ],
      "name": "MaxSupplyChanged",
      "type": "event"
    },
    {
      "anonymous": false,
      "inputs": [
        {
          "indexed": false,
          "internalType": "uint256",
          "name": "oldPrice",
          "type": "uint256"
        },
        {
          "indexed": false,
          "internalType": "uint256",
          "name": "newPrice",
          "type": "uint256"
        }
      ],
      "name": "NFTPriceChanged",
      "type": "event"
    },
    {
      "anonymous": false,
      "inputs": [
        {
          "indexed": true,
          "internalType": "address",
          "name": "previousOwner",
          "type": "address"
        },
        {
          "indexed": true,
          "internalType": "address",
          "name": "newOwner",
          "type": "address"
        }
      ],
      "name": "OwnershipTransferred",
      "type": "event"
    },
    {
      "anonymous": false,
      "inputs": [
        {
          "indexed": true,
          "internalType": "address",
          "name": "from",
          "type": "address"
        },
        {
          "indexed": true,
          "internalType": "address",
          "name": "to",
          "type": "address"
        },
        {
          "indexed": true,
          "internalType": "uint256",
          "name": "tokenId",
          "type": "uint256"
        }
      ],
      "name": "Transfer",
      "type": "event"
    },
    {
      "anonymous": false,
      "inputs": [
        {
          "indexed": false,
          "internalType": "address",
          "name": "wallet",
          "type": "address"
        }
      ],
      "name": "WalletAddedToDenyList",
      "type": "event"
    },
    {
      "stateMutability": "payable",
      "type": "fallback",
      "payable": true
    },
    {
      "inputs": [
        {
          "internalType": "address",
          "name": "to",
          "type": "address"
        },
        {
          "internalType": "uint256",
          "name": "tokenId",
          "type": "uint256"
        }
      ],
      "name": "approve",
      "outputs": [],
      "stateMutability": "nonpayable",
      "type": "function"
    },
    {
      "inputs": [
        {
          "internalType": "address",
          "name": "owner",
          "type": "address"
        }
      ],
      "name": "balanceOf",
      "outputs": [
        {
          "internalType": "uint256",
          "name": "",
          "type": "uint256"
        }
      ],
      "stateMutability": "view",
      "type": "function",
      "constant": true
    },
    {
      "inputs": [
        {
          "internalType": "uint256",
          "name": "tokenId",
          "type": "uint256"
        }
      ],
      "name": "getApproved",
      "outputs": [
        {
          "internalType": "address",
          "name": "",
          "type": "address"
        }
      ],
      "stateMutability": "view",
      "type": "function",
      "constant": true
    },
    {
      "inputs": [
        {
          "internalType": "address",
          "name": "owner",
          "type": "address"
        },
        {
          "internalType": "address",
          "name": "operator",
          "type": "address"
        }
      ],
      "name": "isApprovedForAll",
      "outputs": [
        {
          "internalType": "bool",
          "name": "",
          "type": "bool"
        }
      ],
      "stateMutability": "view",
      "type": "function",
      "constant": true
    },
    {
      "inputs": [],
      "name": "name",
      "outputs": [
        {
          "internalType": "string",
          "name": "",
          "type": "string"
        }
      ],
      "stateMutability": "view",
      "type": "function",
      "constant": true
    },
    {
      "inputs": [],
      "name": "owner",
      "outputs": [
        {
          "internalType": "address",
          "name": "",
          "type": "address"
        }
      ],
      "stateMutability": "view",
      "type": "function",
      "constant": true
    },
    {
      "inputs": [
        {
          "internalType": "uint256",
          "name": "tokenId",
          "type": "uint256"
        }
      ],
      "name": "ownerOf",
      "outputs": [
        {
          "internalType": "address",
          "name": "",
          "type": "address"
        }
      ],
      "stateMutability": "view",
      "type": "function",
      "constant": true
    },
    {
      "inputs": [],
      "name": "renounceOwnership",
      "outputs": [],
      "stateMutability": "nonpayable",
      "type": "function"
    },
    {
      "inputs": [
        {
          "internalType": "address",
          "name": "from",
          "type": "address"
        },
        {
          "internalType": "address",
          "name": "to",
          "type": "address"
        },
        {
          "internalType": "uint256",
          "name": "tokenId",
          "type": "uint256"
        }
      ],
      "name": "safeTransferFrom",
      "outputs": [],
      "stateMutability": "nonpayable",
      "type": "function"
    },
    {
      "inputs": [
        {
          "internalType": "address",
          "name": "from",
          "type": "address"
        },
        {
          "internalType": "address",
          "name": "to",
          "type": "address"
        },
        {
          "internalType": "uint256",
          "name": "tokenId",
          "type": "uint256"
        },
        {
          "internalType": "bytes",
          "name": "data",
          "type": "bytes"
        }
      ],
      "name": "safeTransferFrom",
      "outputs": [],
      "stateMutability": "nonpayable",
      "type": "function"
    },
    {
      "inputs": [
        {
          "internalType": "address",
          "name": "operator",
          "type": "address"
        },
        {
          "internalType": "bool",
          "name": "approved",
          "type": "bool"
        }
      ],
      "name": "setApprovalForAll",
      "outputs": [],
      "stateMutability": "nonpayable",
      "type": "function"
    },
    {
      "inputs": [
        {
          "internalType": "bytes4",
          "name": "interfaceId",
          "type": "bytes4"
        }
      ],
      "name": "supportsInterface",
      "outputs": [
        {
          "internalType": "bool",
          "name": "",
          "type": "bool"
        }
      ],
      "stateMutability": "view",
      "type": "function",
      "constant": true
    },
    {
      "inputs": [],
      "name": "symbol",
      "outputs": [
        {
          "internalType": "string",
          "name": "",
          "type": "string"
        }
      ],
      "stateMutability": "view",
      "type": "function",
      "constant": true
    },
    {
      "inputs": [
        {
          "internalType": "uint256",
          "name": "tokenId",
          "type": "uint256"
        }
      ],
      "name": "tokenURI",
      "outputs": [
        {
          "internalType": "string",
          "name": "",
          "type": "string"
        }
      ],
      "stateMutability": "view",
      "type": "function",
      "constant": true
    },
    {
      "inputs": [
        {
          "internalType": "address",
          "name": "from",
          "type": "address"
        },
        {
          "internalType": "address",
          "name": "to",
          "type": "address"
        },
        {
          "internalType": "uint256",
          "name": "tokenId",
          "type": "uint256"
        }
      ],
      "name": "transferFrom",
      "outputs": [],
      "stateMutability": "nonpayable",
      "type": "function"
    },
    {
      "inputs": [
        {
          "internalType": "address",
          "name": "newOwner",
          "type": "address"
        }
      ],
      "name": "transferOwnership",
      "outputs": [],
      "stateMutability": "nonpayable",
      "type": "function"
    },
    {
      "stateMutability": "payable",
      "type": "receive",
      "payable": true
    },
    {
      "inputs": [
        {
          "internalType": "address",
          "name": "wallet_",
          "type": "address"
        },
        {
          "internalType": "string",
          "name": "tokenURI_",
          "type": "string"
        }
      ],
      "name": "mint",
      "outputs": [],
      "stateMutability": "payable",
      "type": "function",
      "payable": true
    },
    {
      "inputs": [
        {
          "internalType": "address",
          "name": "wallet_",
          "type": "address"
        },
        {
          "internalType": "uint256",
          "name": "amountToMint_",
          "type": "uint256"
        },
        {
          "internalType": "string",
          "name": "tokenURI_",
          "type": "string"
        }
      ],
      "name": "mintMultiple",
      "outputs": [],
      "stateMutability": "payable",
      "type": "function",
      "payable": true
    },
    {
      "inputs": [],
      "name": "getPrice",
      "outputs": [
        {
          "internalType": "uint256",
          "name": "",
          "type": "uint256"
        }
      ],
      "stateMutability": "view",
      "type": "function",
      "constant": true
    },
    {
      "inputs": [
        {
          "internalType": "uint256",
          "name": "price_",
          "type": "uint256"
        }
      ],
      "name": "setPrice",
      "outputs": [],
      "stateMutability": "nonpayable",
      "type": "function"
    },
    {
      "inputs": [],
      "name": "getStatus",
      "outputs": [
        {
          "internalType": "enum BirbzNFTToken.Status",
          "name": "",
          "type": "uint8"
        }
      ],
      "stateMutability": "view",
      "type": "function",
      "constant": true
    },
    {
      "inputs": [
        {
          "internalType": "enum BirbzNFTToken.Status",
          "name": "status_",
          "type": "uint8"
        }
      ],
      "name": "setStatus",
      "outputs": [],
      "stateMutability": "nonpayable",
      "type": "function"
    },
    {
      "inputs": [],
      "name": "getMaxSupply",
      "outputs": [
        {
          "internalType": "uint256",
          "name": "",
          "type": "uint256"
        }
      ],
      "stateMutability": "view",
      "type": "function",
      "constant": true
    },
    {
      "inputs": [
        {
          "internalType": "uint256",
          "name": "maxSupply_",
          "type": "uint256"
        }
      ],
      "name": "setMaxSupply",
      "outputs": [],
      "stateMutability": "nonpayable",
      "type": "function"
    },
    {
      "inputs": [
        {
          "internalType": "address",
          "name": "wallet_",
          "type": "address"
        }
      ],
      "name": "addToDenyList",
      "outputs": [],
      "stateMutability": "nonpayable",
      "type": "function"
    },
    {
      "inputs": [
        {
          "internalType": "address",
          "name": "wallet_",
          "type": "address"
        }
      ],
      "name": "removeFromDenyList",
      "outputs": [],
      "stateMutability": "nonpayable",
      "type": "function"
    },
    {
      "inputs": [
        {
          "internalType": "address",
          "name": "wallet_",
          "type": "address"
        }
      ],
      "name": "checkDenyList",
      "outputs": [
        {
          "internalType": "bool",
          "name": "",
          "type": "bool"
        }
      ],
      "stateMutability": "view",
      "type": "function",
      "constant": true
    },
    {
      "inputs": [],
      "name": "withdraw",
      "outputs": [],
      "stateMutability": "payable",
      "type": "function",
      "payable": true
    },
    {
      "inputs": [
        {
          "internalType": "uint256",
          "name": "amountToMint",
          "type": "uint256"
        }
      ],
      "name": "getAmountToPay",
      "outputs": [
        {
          "internalType": "uint256",
          "name": "",
          "type": "uint256"
        }
      ],
      "stateMutability": "view",
      "type": "function",
      "constant": true
    }
  ],
  "bytecode": "0x60806040523480156200001157600080fd5b506040518060400160405280600581526020017f424952425a0000000000000000000000000000000000000000000000000000008152506040518060400160405280600581526020017f424952425a00000000000000000000000000000000000000000000000000000081525081600090805190602001906200009692919062000226565b508060019080519060200190620000af92919062000226565b505050620000d2620000c66200015860201b60201c565b6200016060201b60201c565b6115b3600d819055506001600a819055506000600b60006101000a81548160ff021916908360028111156200010c576200010b620002d6565b5b021790555030600e60006101000a81548173ffffffffffffffffffffffffffffffffffffffff021916908373ffffffffffffffffffffffffffffffffffffffff16021790555062000369565b600033905090565b6000600760009054906101000a900473ffffffffffffffffffffffffffffffffffffffff16905081600760006101000a81548173ffffffffffffffffffffffffffffffffffffffff021916908373ffffffffffffffffffffffffffffffffffffffff1602179055508173ffffffffffffffffffffffffffffffffffffffff168173ffffffffffffffffffffffffffffffffffffffff167f8be0079c531659141344cd1fd0a4f28419497f9722a3daafe3b4186f6b6457e060405160405180910390a35050565b828054620002349062000334565b90600052602060002090601f016020900481019282620002585760008555620002a4565b82601f106200027357805160ff1916838001178555620002a4565b82800160010185558215620002a4579182015b82811115620002a357825182559160200191906001019062000286565b5b509050620002b39190620002b7565b5090565b5b80821115620002d2576000816000905550600101620002b8565b5090565b7f4e487b7100000000000000000000000000000000000000000000000000000000600052602160045260246000fd5b7f4e487b7100000000000000000000000000000000000000000000000000000000600052602260045260246000fd5b600060028204905060018216806200034d57607f821691505b60208210810362000363576200036262000305565b5b50919050565b613e6d80620003796000396000f3fe6080604052600436106101c65760003560e01c8063715018a6116100f7578063b88d4fde11610095578063e985e9c511610064578063e985e9c5146105f5578063f2fde38b14610632578063f47ab6801461065b578063fd75b79314610698576101cd565b8063b88d4fde1461054a578063b903364c14610573578063c87b56dd1461059c578063d0def521146105d9576101cd565b80639568dc0b116100d15780639568dc0b146104af57806395d89b41146104cb57806398d5fdca146104f6578063a22cb46514610521576101cd565b8063715018a6146104445780638da5cb5b1461045b57806391b7f5ed14610486576101cd565b80633ccfd60b116101645780634e69d5601161013e5780634e69d560146103765780636352211e146103a15780636f8b44b0146103de57806370a0823114610407576101cd565b80633ccfd60b1461031857806342842e0e146103225780634c0f38c21461034b576101cd565b8063095ea7b3116101a0578063095ea7b314610274578063215048cd1461029d57806323b872dd146102c65780632e49d78b146102ef576101cd565b806301ffc9a7146101cf57806306fdde031461020c578063081812fc14610237576101cd565b366101cd57005b005b3480156101db57600080fd5b506101f660048036038101906101f191906126d5565b6106d5565b604051610203919061271d565b60405180910390f35b34801561021857600080fd5b506102216107b7565b60405161022e91906127d1565b60405180910390f35b34801561024357600080fd5b5061025e60048036038101906102599190612829565b610849565b60405161026b9190612897565b60405180910390f35b34801561028057600080fd5b5061029b600480360381019061029691906128de565b61088f565b005b3480156102a957600080fd5b506102c460048036038101906102bf919061291e565b6109a6565b005b3480156102d257600080fd5b506102ed60048036038101906102e8919061294b565b610a09565b005b3480156102fb57600080fd5b50610316600480360381019061031191906129c3565b610a69565b005b610320610ae6565b005b34801561032e57600080fd5b506103496004803603810190610344919061294b565b610b7a565b005b34801561035757600080fd5b50610360610b9a565b60405161036d91906129ff565b60405180910390f35b34801561038257600080fd5b5061038b610ba4565b6040516103989190612a91565b60405180910390f35b3480156103ad57600080fd5b506103c860048036038101906103c39190612829565b610bbb565b6040516103d59190612897565b60405180910390f35b3480156103ea57600080fd5b5061040560048036038101906104009190612829565b610c6c565b005b34801561041357600080fd5b5061042e6004803603810190610429919061291e565b610cb9565b60405161043b91906129ff565b60405180910390f35b34801561045057600080fd5b50610459610d70565b005b34801561046757600080fd5b50610470610d84565b60405161047d9190612897565b60405180910390f35b34801561049257600080fd5b506104ad60048036038101906104a89190612829565b610dae565b005b6104c960048036038101906104c49190612be1565b610dfb565b005b3480156104d757600080fd5b506104e0610eb2565b6040516104ed91906127d1565b60405180910390f35b34801561050257600080fd5b5061050b610f44565b60405161051891906129ff565b60405180910390f35b34801561052d57600080fd5b5061054860048036038101906105439190612c7c565b610f4e565b005b34801561055657600080fd5b50610571600480360381019061056c9190612d5d565b610f64565b005b34801561057f57600080fd5b5061059a6004803603810190610595919061291e565b610fc6565b005b3480156105a857600080fd5b506105c360048036038101906105be9190612829565b611060565b6040516105d091906127d1565b60405180910390f35b6105f360048036038101906105ee9190612de0565b611172565b005b34801561060157600080fd5b5061061c60048036038101906106179190612e3c565b6111f6565b604051610629919061271d565b60405180910390f35b34801561063e57600080fd5b506106596004803603810190610654919061291e565b61128a565b005b34801561066757600080fd5b50610682600480360381019061067d9190612829565b61130d565b60405161068f91906129ff565b60405180910390f35b3480156106a457600080fd5b506106bf60048036038101906106ba919061291e565b611324565b6040516106cc919061271d565b60405180910390f35b60007f80ac58cd000000000000000000000000000000000000000000000000000000007bffffffffffffffffffffffffffffffffffffffffffffffffffffffff1916827bffffffffffffffffffffffffffffffffffffffffffffffffffffffff191614806107a057507f5b5e139f000000000000000000000000000000000000000000000000000000007bffffffffffffffffffffffffffffffffffffffffffffffffffffffff1916827bffffffffffffffffffffffffffffffffffffffffffffffffffffffff1916145b806107b057506107af8261137a565b5b9050919050565b6060600080546107c690612eab565b80601f01602080910402602001604051908101604052809291908181526020018280546107f290612eab565b801561083f5780601f106108145761010080835404028352916020019161083f565b820191906000526020600020905b81548152906001019060200180831161082257829003601f168201915b5050505050905090565b6000610854826113e4565b6004600083815260200190815260200160002060009054906101000a900473ffffffffffffffffffffffffffffffffffffffff169050919050565b600061089a82610bbb565b90508073ffffffffffffffffffffffffffffffffffffffff168373ffffffffffffffffffffffffffffffffffffffff160361090a576040517f08c379a000000000000000000000000000000000000000000000000000000000815260040161090190612f4e565b60405180910390fd5b8073ffffffffffffffffffffffffffffffffffffffff1661092961142f565b73ffffffffffffffffffffffffffffffffffffffff16148061095857506109578161095261142f565b6111f6565b5b610997576040517f08c379a000000000000000000000000000000000000000000000000000000000815260040161098e90612fe0565b60405180910390fd5b6109a18383611437565b505050565b6109ae6114f0565b6000600c60008373ffffffffffffffffffffffffffffffffffffffff1673ffffffffffffffffffffffffffffffffffffffff16815260200190815260200160002060006101000a81548160ff02191690831515021790555050565b610a1a610a1461142f565b8261156e565b610a59576040517f08c379a0000000000000000000000000000000000000000000000000000000008152600401610a5090613072565b60405180910390fd5b610a64838383611603565b505050565b610a716114f0565b7f5381981cd2452c800c959097fa1cf57df0756b19bd0e1e1e3977c06b2d4dbad7600b60009054906101000a900460ff1682604051610ab1929190613092565b60405180910390a180600b60006101000a81548160ff02191690836002811115610ade57610add612a1a565b5b021790555050565b610aee6114f0565b6000610af8610d84565b905060004790508173ffffffffffffffffffffffffffffffffffffffff166108fc829081150290604051600060405180830381858888f19350505050610b3d57600080fd5b7fdd14374458d4625d231f09a9f173ecc29d3953e238011f5ff6d06e94ac6b2bcd8282604051610b6e9291906130bb565b60405180910390a15050565b610b9583838360405180602001604052806000815250610f64565b505050565b6000600d54905090565b6000600b60009054906101000a900460ff16905090565b6000806002600084815260200190815260200160002060009054906101000a900473ffffffffffffffffffffffffffffffffffffffff169050600073ffffffffffffffffffffffffffffffffffffffff168173ffffffffffffffffffffffffffffffffffffffff1603610c63576040517f08c379a0000000000000000000000000000000000000000000000000000000008152600401610c5a90613130565b60405180910390fd5b80915050919050565b610c746114f0565b7fa626f93317e2474b716846a09cf0e28aacb96052643b252fe97704208fecf9b5600d5482604051610ca7929190613150565b60405180910390a180600d8190555050565b60008073ffffffffffffffffffffffffffffffffffffffff168273ffffffffffffffffffffffffffffffffffffffff1603610d29576040517f08c379a0000000000000000000000000000000000000000000000000000000008152600401610d20906131eb565b60405180910390fd5b600360008373ffffffffffffffffffffffffffffffffffffffff1673ffffffffffffffffffffffffffffffffffffffff168152602001908152602001600020549050919050565b610d786114f0565b610d826000611869565b565b6000600760009054906101000a900473ffffffffffffffffffffffffffffffffffffffff16905090565b610db66114f0565b7f39c0d3343dcaca0906e186779c0e59726f88182c606a921871c82eac377229fd600a5482604051610de9929190613150565b60405180910390a180600a8190555050565b610e05838361192f565b600082600a54610e15919061323a565b9050600e60009054906101000a900473ffffffffffffffffffffffffffffffffffffffff1673ffffffffffffffffffffffffffffffffffffffff166108fc829081150290604051600060405180830381858888f19350505050158015610e7f573d6000803e3d6000fd5b506000600190505b838111610eab57610e988584611c7e565b8080610ea390613294565b915050610e87565b5050505050565b606060018054610ec190612eab565b80601f0160208091040260200160405190810160405280929190818152602001828054610eed90612eab565b8015610f3a5780601f10610f0f57610100808354040283529160200191610f3a565b820191906000526020600020905b815481529060010190602001808311610f1d57829003601f168201915b5050505050905090565b6000600a54905090565b610f60610f5961142f565b8383611d15565b5050565b610f75610f6f61142f565b8361156e565b610fb4576040517f08c379a0000000000000000000000000000000000000000000000000000000008152600401610fab90613072565b60405180910390fd5b610fc084848484611e81565b50505050565b610fce6114f0565b6001600c60008373ffffffffffffffffffffffffffffffffffffffff1673ffffffffffffffffffffffffffffffffffffffff16815260200190815260200160002060006101000a81548160ff0219169083151502179055507ffc8112efc8569faaf10e4c68d9353dfe9956489ea82f4e30bc716488aed4fb56816040516110559190612897565b60405180910390a150565b606061106b826113e4565b600060066000848152602001908152602001600020805461108b90612eab565b80601f01602080910402602001604051908101604052809291908181526020018280546110b790612eab565b80156111045780601f106110d957610100808354040283529160200191611104565b820191906000526020600020905b8154815290600101906020018083116110e757829003601f168201915b505050505090506000611115611edd565b9050600081510361112a57819250505061116d565b60008251111561115f578082604051602001611147929190613318565b6040516020818303038152906040529250505061116d565b61116884611ef4565b925050505b919050565b61117d82600161192f565b600e60009054906101000a900473ffffffffffffffffffffffffffffffffffffffff1673ffffffffffffffffffffffffffffffffffffffff166108fc600a549081150290604051600060405180830381858888f193505050501580156111e7573d6000803e3d6000fd5b506111f28282611c7e565b5050565b6000600560008473ffffffffffffffffffffffffffffffffffffffff1673ffffffffffffffffffffffffffffffffffffffff16815260200190815260200160002060008373ffffffffffffffffffffffffffffffffffffffff1673ffffffffffffffffffffffffffffffffffffffff16815260200190815260200160002060009054906101000a900460ff16905092915050565b6112926114f0565b600073ffffffffffffffffffffffffffffffffffffffff168173ffffffffffffffffffffffffffffffffffffffff1603611301576040517f08c379a00000000000000000000000000000000000000000000000000000000081526004016112f8906133ae565b60405180910390fd5b61130a81611869565b50565b600081600a5461131d919061323a565b9050919050565b6000600c60008373ffffffffffffffffffffffffffffffffffffffff1673ffffffffffffffffffffffffffffffffffffffff16815260200190815260200160002060009054906101000a900460ff169050919050565b60007f01ffc9a7000000000000000000000000000000000000000000000000000000007bffffffffffffffffffffffffffffffffffffffffffffffffffffffff1916827bffffffffffffffffffffffffffffffffffffffffffffffffffffffff1916149050919050565b6113ed81611f5c565b61142c576040517f08c379a000000000000000000000000000000000000000000000000000000000815260040161142390613130565b60405180910390fd5b50565b600033905090565b816004600083815260200190815260200160002060006101000a81548173ffffffffffffffffffffffffffffffffffffffff021916908373ffffffffffffffffffffffffffffffffffffffff160217905550808273ffffffffffffffffffffffffffffffffffffffff166114aa83610bbb565b73ffffffffffffffffffffffffffffffffffffffff167f8c5be1e5ebec7d5bd14f71427d1e84f3dd0314c0f7b2291e5b200ac8c7c3b92560405160405180910390a45050565b6114f861142f565b73ffffffffffffffffffffffffffffffffffffffff16611516610d84565b73ffffffffffffffffffffffffffffffffffffffff161461156c576040517f08c379a00000000000000000000000000000000000000000000000000000000081526004016115639061341a565b60405180910390fd5b565b60008061157a83610bbb565b90508073ffffffffffffffffffffffffffffffffffffffff168473ffffffffffffffffffffffffffffffffffffffff1614806115bc57506115bb81856111f6565b5b806115fa57508373ffffffffffffffffffffffffffffffffffffffff166115e284610849565b73ffffffffffffffffffffffffffffffffffffffff16145b91505092915050565b8273ffffffffffffffffffffffffffffffffffffffff1661162382610bbb565b73ffffffffffffffffffffffffffffffffffffffff1614611679576040517f08c379a0000000000000000000000000000000000000000000000000000000008152600401611670906134ac565b60405180910390fd5b600073ffffffffffffffffffffffffffffffffffffffff168273ffffffffffffffffffffffffffffffffffffffff16036116e8576040517f08c379a00000000000000000000000000000000000000000000000000000000081526004016116df9061353e565b60405180910390fd5b6116f3838383611fc8565b6116fe600082611437565b6001600360008573ffffffffffffffffffffffffffffffffffffffff1673ffffffffffffffffffffffffffffffffffffffff168152602001908152602001600020600082825461174e919061355e565b925050819055506001600360008473ffffffffffffffffffffffffffffffffffffffff1673ffffffffffffffffffffffffffffffffffffffff16815260200190815260200160002060008282546117a59190613592565b92505081905550816002600083815260200190815260200160002060006101000a81548173ffffffffffffffffffffffffffffffffffffffff021916908373ffffffffffffffffffffffffffffffffffffffff160217905550808273ffffffffffffffffffffffffffffffffffffffff168473ffffffffffffffffffffffffffffffffffffffff167fddf252ad1be2c89b69c2b068fc378daa952ba7f163c4a11628f55a4df523b3ef60405160405180910390a4611864838383611fcd565b505050565b6000600760009054906101000a900473ffffffffffffffffffffffffffffffffffffffff16905081600760006101000a81548173ffffffffffffffffffffffffffffffffffffffff021916908373ffffffffffffffffffffffffffffffffffffffff1602179055508173ffffffffffffffffffffffffffffffffffffffff168173ffffffffffffffffffffffffffffffffffffffff167f8be0079c531659141344cd1fd0a4f28419497f9722a3daafe3b4186f6b6457e060405160405180910390a35050565b6000600281111561194357611942612a1a565b5b600b60009054906101000a900460ff16600281111561196557611964612a1a565b5b146119a5576040517f08c379a000000000000000000000000000000000000000000000000000000000815260040161199c9061365a565b60405180910390fd5b600081116119e8576040517f08c379a00000000000000000000000000000000000000000000000000000000081526004016119df906136ec565b60405180910390fd5b600a811115611a2c576040517f08c379a0000000000000000000000000000000000000000000000000000000008152600401611a239061377e565b60405180910390fd5b600073ffffffffffffffffffffffffffffffffffffffff168273ffffffffffffffffffffffffffffffffffffffff1603611a9b576040517f08c379a0000000000000000000000000000000000000000000000000000000008152600401611a9290613810565b60405180910390fd5b6000600960008473ffffffffffffffffffffffffffffffffffffffff1673ffffffffffffffffffffffffffffffffffffffff168152602001908152602001600020805490509050600a8282611af09190613592565b1115611b31576040517f08c379a0000000000000000000000000000000000000000000000000000000008152600401611b28906138a2565b60405180910390fd5b60001515600c60008573ffffffffffffffffffffffffffffffffffffffff1673ffffffffffffffffffffffffffffffffffffffff16815260200190815260200160002060009054906101000a900460ff16151514611bc4576040517f08c379a0000000000000000000000000000000000000000000000000000000008152600401611bbb9061390e565b60405180910390fd5b6000611bd06008611fd2565b9050600d548382611be19190613592565b1115611c22576040517f08c379a0000000000000000000000000000000000000000000000000000000008152600401611c199061397a565b60405180910390fd5b600083600a54611c32919061323a565b905080341015611c77576040517f08c379a0000000000000000000000000000000000000000000000000000000008152600401611c6e90613a0c565b60405180910390fd5b5050505050565b6000611c8a6008611fd2565b9050611c968382611fe0565b611ca08183611ffe565b611caa6008612072565b600960008473ffffffffffffffffffffffffffffffffffffffff1673ffffffffffffffffffffffffffffffffffffffff168152602001908152602001600020819080600181540180825580915050600190039060005260206000200160009091909190915055505050565b8173ffffffffffffffffffffffffffffffffffffffff168373ffffffffffffffffffffffffffffffffffffffff1603611d83576040517f08c379a0000000000000000000000000000000000000000000000000000000008152600401611d7a90613a78565b60405180910390fd5b80600560008573ffffffffffffffffffffffffffffffffffffffff1673ffffffffffffffffffffffffffffffffffffffff16815260200190815260200160002060008473ffffffffffffffffffffffffffffffffffffffff1673ffffffffffffffffffffffffffffffffffffffff16815260200190815260200160002060006101000a81548160ff0219169083151502179055508173ffffffffffffffffffffffffffffffffffffffff168373ffffffffffffffffffffffffffffffffffffffff167f17307eab39ab6107e8899845ad3d59bd9653f200f220920489ca2b5937696c3183604051611e74919061271d565b60405180910390a3505050565b611e8c848484611603565b611e9884848484612088565b611ed7576040517f08c379a0000000000000000000000000000000000000000000000000000000008152600401611ece90613b0a565b60405180910390fd5b50505050565b606060405180602001604052806000815250905090565b6060611eff826113e4565b6000611f09611edd565b90506000815111611f295760405180602001604052806000815250611f54565b80611f338461220f565b604051602001611f44929190613318565b6040516020818303038152906040525b915050919050565b60008073ffffffffffffffffffffffffffffffffffffffff166002600084815260200190815260200160002060009054906101000a900473ffffffffffffffffffffffffffffffffffffffff1673ffffffffffffffffffffffffffffffffffffffff1614159050919050565b505050565b505050565b600081600001549050919050565b611ffa82826040518060200160405280600081525061236f565b5050565b61200782611f5c565b612046576040517f08c379a000000000000000000000000000000000000000000000000000000000815260040161203d90613b9c565b60405180910390fd5b8060066000848152602001908152602001600020908051906020019061206d9291906125c6565b505050565b6001816000016000828254019250508190555050565b60006120a98473ffffffffffffffffffffffffffffffffffffffff166123ca565b15612202578373ffffffffffffffffffffffffffffffffffffffff1663150b7a026120d261142f565b8786866040518563ffffffff1660e01b81526004016120f49493929190613c11565b6020604051808303816000875af192505050801561213057506040513d601f19601f8201168201806040525081019061212d9190613c72565b60015b6121b2573d8060008114612160576040519150601f19603f3d011682016040523d82523d6000602084013e612165565b606091505b5060008151036121aa576040517f08c379a00000000000000000000000000000000000000000000000000000000081526004016121a190613b0a565b60405180910390fd5b805181602001fd5b63150b7a0260e01b7bffffffffffffffffffffffffffffffffffffffffffffffffffffffff1916817bffffffffffffffffffffffffffffffffffffffffffffffffffffffff191614915050612207565b600190505b949350505050565b606060008203612256576040518060400160405280600181526020017f3000000000000000000000000000000000000000000000000000000000000000815250905061236a565b600082905060005b6000821461228857808061227190613294565b915050600a826122819190613cce565b915061225e565b60008167ffffffffffffffff8111156122a4576122a3612ab6565b5b6040519080825280601f01601f1916602001820160405280156122d65781602001600182028036833780820191505090505b5090505b60008514612363576001826122ef919061355e565b9150600a856122fe9190613cff565b603061230a9190613592565b60f81b8183815181106123205761231f613d30565b5b60200101907effffffffffffffffffffffffffffffffffffffffffffffffffffffffffffff1916908160001a905350600a8561235c9190613cce565b94506122da565b8093505050505b919050565b61237983836123ed565b6123866000848484612088565b6123c5576040517f08c379a00000000000000000000000000000000000000000000000000000000081526004016123bc90613b0a565b60405180910390fd5b505050565b6000808273ffffffffffffffffffffffffffffffffffffffff163b119050919050565b600073ffffffffffffffffffffffffffffffffffffffff168273ffffffffffffffffffffffffffffffffffffffff160361245c576040517f08c379a000000000000000000000000000000000000000000000000000000000815260040161245390613dab565b60405180910390fd5b61246581611f5c565b156124a5576040517f08c379a000000000000000000000000000000000000000000000000000000000815260040161249c90613e17565b60405180910390fd5b6124b160008383611fc8565b6001600360008473ffffffffffffffffffffffffffffffffffffffff1673ffffffffffffffffffffffffffffffffffffffff16815260200190815260200160002060008282546125019190613592565b92505081905550816002600083815260200190815260200160002060006101000a81548173ffffffffffffffffffffffffffffffffffffffff021916908373ffffffffffffffffffffffffffffffffffffffff160217905550808273ffffffffffffffffffffffffffffffffffffffff16600073ffffffffffffffffffffffffffffffffffffffff167fddf252ad1be2c89b69c2b068fc378daa952ba7f163c4a11628f55a4df523b3ef60405160405180910390a46125c260008383611fcd565b5050565b8280546125d290612eab565b90600052602060002090601f0160209004810192826125f4576000855561263b565b82601f1061260d57805160ff191683800117855561263b565b8280016001018555821561263b579182015b8281111561263a57825182559160200191906001019061261f565b5b509050612648919061264c565b5090565b5b8082111561266557600081600090555060010161264d565b5090565b6000604051905090565b600080fd5b600080fd5b60007fffffffff0000000000000000000000000000000000000000000000000000000082169050919050565b6126b28161267d565b81146126bd57600080fd5b50565b6000813590506126cf816126a9565b92915050565b6000602082840312156126eb576126ea612673565b5b60006126f9848285016126c0565b91505092915050565b60008115159050919050565b61271781612702565b82525050565b6000602082019050612732600083018461270e565b92915050565b600081519050919050565b600082825260208201905092915050565b60005b83811015612772578082015181840152602081019050612757565b83811115612781576000848401525b50505050565b6000601f19601f8301169050919050565b60006127a382612738565b6127ad8185612743565b93506127bd818560208601612754565b6127c681612787565b840191505092915050565b600060208201905081810360008301526127eb8184612798565b905092915050565b6000819050919050565b612806816127f3565b811461281157600080fd5b50565b600081359050612823816127fd565b92915050565b60006020828403121561283f5761283e612673565b5b600061284d84828501612814565b91505092915050565b600073ffffffffffffffffffffffffffffffffffffffff82169050919050565b600061288182612856565b9050919050565b61289181612876565b82525050565b60006020820190506128ac6000830184612888565b92915050565b6128bb81612876565b81146128c657600080fd5b50565b6000813590506128d8816128b2565b92915050565b600080604083850312156128f5576128f4612673565b5b6000612903858286016128c9565b925050602061291485828601612814565b9150509250929050565b60006020828403121561293457612933612673565b5b6000612942848285016128c9565b91505092915050565b60008060006060848603121561296457612963612673565b5b6000612972868287016128c9565b9350506020612983868287016128c9565b925050604061299486828701612814565b9150509250925092565b600381106129ab57600080fd5b50565b6000813590506129bd8161299e565b92915050565b6000602082840312156129d9576129d8612673565b5b60006129e7848285016129ae565b91505092915050565b6129f9816127f3565b82525050565b6000602082019050612a1460008301846129f0565b92915050565b7f4e487b7100000000000000000000000000000000000000000000000000000000600052602160045260246000fd5b60038110612a5a57612a59612a1a565b5b50565b6000819050612a6b82612a49565b919050565b6000612a7b82612a5d565b9050919050565b612a8b81612a70565b82525050565b6000602082019050612aa66000830184612a82565b92915050565b600080fd5b600080fd5b7f4e487b7100000000000000000000000000000000000000000000000000000000600052604160045260246000fd5b612aee82612787565b810181811067ffffffffffffffff82111715612b0d57612b0c612ab6565b5b80604052505050565b6000612b20612669565b9050612b2c8282612ae5565b919050565b600067ffffffffffffffff821115612b4c57612b4b612ab6565b5b612b5582612787565b9050602081019050919050565b82818337600083830152505050565b6000612b84612b7f84612b31565b612b16565b905082815260208101848484011115612ba057612b9f612ab1565b5b612bab848285612b62565b509392505050565b600082601f830112612bc857612bc7612aac565b5b8135612bd8848260208601612b71565b91505092915050565b600080600060608486031215612bfa57612bf9612673565b5b6000612c08868287016128c9565b9350506020612c1986828701612814565b925050604084013567ffffffffffffffff811115612c3a57612c39612678565b5b612c4686828701612bb3565b9150509250925092565b612c5981612702565b8114612c6457600080fd5b50565b600081359050612c7681612c50565b92915050565b60008060408385031215612c9357612c92612673565b5b6000612ca1858286016128c9565b9250506020612cb285828601612c67565b9150509250929050565b600067ffffffffffffffff821115612cd757612cd6612ab6565b5b612ce082612787565b9050602081019050919050565b6000612d00612cfb84612cbc565b612b16565b905082815260208101848484011115612d1c57612d1b612ab1565b5b612d27848285612b62565b509392505050565b600082601f830112612d4457612d43612aac565b5b8135612d54848260208601612ced565b91505092915050565b60008060008060808587031215612d7757612d76612673565b5b6000612d85878288016128c9565b9450506020612d96878288016128c9565b9350506040612da787828801612814565b925050606085013567ffffffffffffffff811115612dc857612dc7612678565b5b612dd487828801612d2f565b91505092959194509250565b60008060408385031215612df757612df6612673565b5b6000612e05858286016128c9565b925050602083013567ffffffffffffffff811115612e2657612e25612678565b5b612e3285828601612bb3565b9150509250929050565b60008060408385031215612e5357612e52612673565b5b6000612e61858286016128c9565b9250506020612e72858286016128c9565b9150509250929050565b7f4e487b7100000000000000000000000000000000000000000000000000000000600052602260045260246000fd5b60006002820490506001821680612ec357607f821691505b602082108103612ed657612ed5612e7c565b5b50919050565b7f4552433732313a20617070726f76616c20746f2063757272656e74206f776e6560008201527f7200000000000000000000000000000000000000000000000000000000000000602082015250565b6000612f38602183612743565b9150612f4382612edc565b604082019050919050565b60006020820190508181036000830152612f6781612f2b565b9050919050565b7f4552433732313a20617070726f76652063616c6c6572206973206e6f7420746f60008201527f6b656e206f776e6572206e6f7220617070726f76656420666f7220616c6c0000602082015250565b6000612fca603e83612743565b9150612fd582612f6e565b604082019050919050565b60006020820190508181036000830152612ff981612fbd565b9050919050565b7f4552433732313a2063616c6c6572206973206e6f7420746f6b656e206f776e6560008201527f72206e6f7220617070726f766564000000000000000000000000000000000000602082015250565b600061305c602e83612743565b915061306782613000565b604082019050919050565b6000602082019050818103600083015261308b8161304f565b9050919050565b60006040820190506130a76000830185612a82565b6130b46020830184612a82565b9392505050565b60006040820190506130d06000830185612888565b6130dd60208301846129f0565b9392505050565b7f4552433732313a20696e76616c696420746f6b656e2049440000000000000000600082015250565b600061311a601883612743565b9150613125826130e4565b602082019050919050565b600060208201905081810360008301526131498161310d565b9050919050565b600060408201905061316560008301856129f0565b61317260208301846129f0565b9392505050565b7f4552433732313a2061646472657373207a65726f206973206e6f74206120766160008201527f6c6964206f776e65720000000000000000000000000000000000000000000000602082015250565b60006131d5602983612743565b91506131e082613179565b604082019050919050565b60006020820190508181036000830152613204816131c8565b9050919050565b7f4e487b7100000000000000000000000000000000000000000000000000000000600052601160045260246000fd5b6000613245826127f3565b9150613250836127f3565b9250817fffffffffffffffffffffffffffffffffffffffffffffffffffffffffffffffff04831182151516156132895761328861320b565b5b828202905092915050565b600061329f826127f3565b91507fffffffffffffffffffffffffffffffffffffffffffffffffffffffffffffffff82036132d1576132d061320b565b5b600182019050919050565b600081905092915050565b60006132f282612738565b6132fc81856132dc565b935061330c818560208601612754565b80840191505092915050565b600061332482856132e7565b915061333082846132e7565b91508190509392505050565b7f4f776e61626c653a206e6577206f776e657220697320746865207a65726f206160008201527f6464726573730000000000000000000000000000000000000000000000000000602082015250565b6000613398602683612743565b91506133a38261333c565b604082019050919050565b600060208201905081810360008301526133c78161338b565b9050919050565b7f4f776e61626c653a2063616c6c6572206973206e6f7420746865206f776e6572600082015250565b6000613404602083612743565b915061340f826133ce565b602082019050919050565b60006020820190508181036000830152613433816133f7565b9050919050565b7f4552433732313a207472616e736665722066726f6d20696e636f72726563742060008201527f6f776e6572000000000000000000000000000000000000000000000000000000602082015250565b6000613496602583612743565b91506134a18261343a565b604082019050919050565b600060208201905081810360008301526134c581613489565b9050919050565b7f4552433732313a207472616e7366657220746f20746865207a65726f2061646460008201527f7265737300000000000000000000000000000000000000000000000000000000602082015250565b6000613528602483612743565b9150613533826134cc565b604082019050919050565b600060208201905081810360008301526135578161351b565b9050919050565b6000613569826127f3565b9150613574836127f3565b9250828210156135875761358661320b565b5b828203905092915050565b600061359d826127f3565b91506135a8836127f3565b9250827fffffffffffffffffffffffffffffffffffffffffffffffffffffffffffffffff038211156135dd576135dc61320b565b5b828201905092915050565b7f4552524f523a20537461747573206f6620636f6e7472616374206973206e6f7460008201527f2061637469766500000000000000000000000000000000000000000000000000602082015250565b6000613644602783612743565b915061364f826135e8565b604082019050919050565b6000602082019050818103600083015261367381613637565b9050919050565b7f4552524f523a20416d6f756e74204e465420746f206d696e74206973207a657260008201527f6f00000000000000000000000000000000000000000000000000000000000000602082015250565b60006136d6602183612743565b91506136e18261367a565b604082019050919050565b60006020820190508181036000830152613705816136c9565b9050919050565b7f4552524f523a20416d6f756e74204e465420746f206d696e74206973206f766560008201527f72206d6178000000000000000000000000000000000000000000000000000000602082015250565b6000613768602583612743565b91506137738261370c565b604082019050919050565b600060208201905081810360008301526137978161375b565b9050919050565b7f4552524f523a2057616c6c65742061646472657373206973206e65656420746f60008201527f206265206469666572656e742030000000000000000000000000000000000000602082015250565b60006137fa602e83612743565b91506138058261379e565b604082019050919050565b60006020820190508181036000830152613829816137ed565b9050919050565b7f4552524f523a204973206e6f7420706f737369626c65206d696e74207468697360008201527f20616d6f756e74206f66204e465420746f20746869732077616c6c6574000000602082015250565b600061388c603d83612743565b915061389782613830565b604082019050919050565b600060208201905081810360008301526138bb8161387f565b9050919050565b7f4552524f523a2057616c6c657420697320696e2064656e79206c697374000000600082015250565b60006138f8601d83612743565b9150613903826138c2565b602082019050919050565b60006020820190508181036000830152613927816138eb565b9050919050565b7f4552524f523a20546f74616c20737570706c792064656e696564000000000000600082015250565b6000613964601a83612743565b915061396f8261392e565b602082019050919050565b6000602082019050818103600083015261399381613957565b9050919050565b7f4552524f523a20457468657220616d6f756e74206973206c6f776572206f662060008201527f7265717569726564000000000000000000000000000000000000000000000000602082015250565b60006139f6602883612743565b9150613a018261399a565b604082019050919050565b60006020820190508181036000830152613a25816139e9565b9050919050565b7f4552433732313a20617070726f766520746f2063616c6c657200000000000000600082015250565b6000613a62601983612743565b9150613a6d82613a2c565b602082019050919050565b60006020820190508181036000830152613a9181613a55565b9050919050565b7f4552433732313a207472616e7366657220746f206e6f6e20455243373231526560008201527f63656976657220696d706c656d656e7465720000000000000000000000000000602082015250565b6000613af4603283612743565b9150613aff82613a98565b604082019050919050565b60006020820190508181036000830152613b2381613ae7565b9050919050565b7f45524337323155524953746f726167653a2055524920736574206f66206e6f6e60008201527f6578697374656e7420746f6b656e000000000000000000000000000000000000602082015250565b6000613b86602e83612743565b9150613b9182613b2a565b604082019050919050565b60006020820190508181036000830152613bb581613b79565b9050919050565b600081519050919050565b600082825260208201905092915050565b6000613be382613bbc565b613bed8185613bc7565b9350613bfd818560208601612754565b613c0681612787565b840191505092915050565b6000608082019050613c266000830187612888565b613c336020830186612888565b613c4060408301856129f0565b8181036060830152613c528184613bd8565b905095945050505050565b600081519050613c6c816126a9565b92915050565b600060208284031215613c8857613c87612673565b5b6000613c9684828501613c5d565b91505092915050565b7f4e487b7100000000000000000000000000000000000000000000000000000000600052601260045260246000fd5b6000613cd9826127f3565b9150613ce4836127f3565b925082613cf457613cf3613c9f565b5b828204905092915050565b6000613d0a826127f3565b9150613d15836127f3565b925082613d2557613d24613c9f565b5b828206905092915050565b7f4e487b7100000000000000000000000000000000000000000000000000000000600052603260045260246000fd5b7f4552433732313a206d696e7420746f20746865207a65726f2061646472657373600082015250565b6000613d95602083612743565b9150613da082613d5f565b602082019050919050565b60006020820190508181036000830152613dc481613d88565b9050919050565b7f4552433732313a20746f6b656e20616c7265616479206d696e74656400000000600082015250565b6000613e01601c83612743565b9150613e0c82613dcb565b602082019050919050565b60006020820190508181036000830152613e3081613df4565b905091905056fea2646970667358221220cd2f5b3b72b19f45403ea94531a01fbaf42646e4edac2d0155ca6ce0a3e7231b64736f6c634300080e0033",
  "immutableReferences": {},
  "source": "/*************************************************************************************\r\n * \r\n * Autor & Owner: Birbz\r\n *\r\n * 446576656c6f7065723a20416e746f6e20506f6c656e79616b61 *****************************/\r\n\r\n// SPDX-License-Identifier: MIT\r\npragma solidity 0.8.14;\r\n\r\nimport \"./ERC721URIStorage.sol\";\r\nimport \"./Counters.sol\";\r\nimport \"./Ownable.sol\";\r\n\r\ncontract BirbzNFTToken is ERC721URIStorage, Ownable {\r\n\r\n    // Enums\r\n\r\n    enum Status {\r\n        Active,\r\n        NotActive,\r\n        Paused\r\n    }\r\n    \r\n    // Constants\r\n\r\n    uint256 constant private MAX_TOKENS_BY_WALLET = 10;\r\n    uint256 constant private MAX_AMOUNT_TO_MINT = 10;\r\n    uint256 constant private INITIAL_MAX_SUPPLY = 5555;\r\n    uint256 constant private DEFAULT_NFT_PRICE = 1;\r\n\r\n    // Attributes & Properties\r\n\r\n    using Counters for Counters.Counter;\r\n    Counters.Counter private _tokenIds;\r\n    mapping(address => uint256[]) private _walletToTokens;\r\n    uint256 private _price;\r\n    Status private _status;\r\n    mapping(address => bool) private _denylist;\r\n    uint256 private _maxSupply;\r\n    address private _contractAddress;\r\n\r\n    // Events\r\n\r\n    event NFTPriceChanged(uint256 oldPrice, uint256 newPrice);\r\n    event ContractStatusChanged(Status oldStatus, Status newStatus);\r\n    event MaxSupplyChanged(uint256 oldSupply, uint256 newSupply);\r\n    event WalletAddedToDenyList(address wallet);\r\n    event BalanceWithdrawed(address to, uint256 balance);\r\n\r\n    // Constructors\r\n\r\n    constructor() ERC721(\"BIRBZ\", \"BIRBZ\") {\r\n        _maxSupply = INITIAL_MAX_SUPPLY;\r\n        _price = DEFAULT_NFT_PRICE;\r\n        _status = Status.Active;\r\n        _contractAddress = payable(address(this));\r\n    }\r\n\r\n    // Methods\r\n\r\n    // Check if is possible mint new NFT's\r\n    function _checkBeforeMint(address wallet_, uint256 amountToMint_) private view {\r\n        // Contract status\r\n        require(_status == Status.Active, \"ERROR: Status of contract is not active\");\r\n        // Check amount to mint > 0\r\n        require(amountToMint_ > 0, \"ERROR: Amount NFT to mint is zero\");\r\n        // Check amount to mint\r\n        require(amountToMint_ <= MAX_AMOUNT_TO_MINT, \"ERROR: Amount NFT to mint is over max\");\r\n        // Check wallet address\r\n        require(wallet_ != address(0), \"ERROR: Wallet address is need to be diferent 0\");\r\n        // Check number of already minted plus new amount\r\n        uint256 currentAmount = _walletToTokens[wallet_].length;\r\n        require((currentAmount + amountToMint_) <= MAX_TOKENS_BY_WALLET, \"ERROR: Is not possible mint this amount of NFT to this wallet\");\r\n        // Check deny list\r\n        require(_denylist[wallet_] == false, \"ERROR: Wallet is in deny list\");\r\n        // Check supply denied\r\n        uint currentSupply = _tokenIds.current();\r\n        require(currentSupply + amountToMint_ <= _maxSupply, \"ERROR: Total supply denied\");\r\n        // Check ether amount denied\r\n        uint256 requiredEthersAmount = _price * amountToMint_;\r\n        require(msg.value >= requiredEthersAmount, \"ERROR: Ether amount is lower of required\");\r\n    }\r\n\r\n    // Safe mint one NFT with indicated URI\r\n    function _mintOne(address wallet_, string memory tokenURI_) private {\r\n        uint256 newItemId = _tokenIds.current();\r\n        _safeMint(wallet_, newItemId);\r\n        _setTokenURI(newItemId, tokenURI_);\r\n        _tokenIds.increment();\r\n        _walletToTokens[wallet_].push(newItemId);\r\n    }\r\n\r\n    // Mint one NFT with indicated URI & check if is possilbe to mint\r\n    function mint(address wallet_, string memory tokenURI_) external payable {\r\n        _checkBeforeMint(wallet_, 1);\r\n        payable(_contractAddress).transfer(_price);\r\n        _mintOne(wallet_, tokenURI_);\r\n    }\r\n\r\n    // Mint multiple NFT's with indicated URI & check if is possilbe to mint\r\n    function mintMultiple(address wallet_, uint256 amountToMint_, string memory tokenURI_) external payable {\r\n        _checkBeforeMint(wallet_, amountToMint_);\r\n        uint256 requiredEthersAmount = _price * amountToMint_;\r\n        payable(_contractAddress).transfer(requiredEthersAmount);\r\n        for(uint256 i = 1; i <= amountToMint_; i++) {\r\n            _mintOne(wallet_, tokenURI_);\r\n        }\r\n    }\r\n\r\n    // Get price of NFT\r\n    function getPrice() external view returns(uint256) {\r\n        return _price;\r\n    }\r\n\r\n    // Set price of NFT\r\n    function setPrice(uint256 price_) external onlyOwner {\r\n        emit NFTPriceChanged(_price, price_);\r\n        _price = price_;\r\n    }\r\n\r\n    // Set status of contract\r\n    function getStatus() external view returns(Status) {\r\n        return _status;\r\n    }\r\n\r\n    // Set status to contract\r\n    function setStatus(Status status_) external onlyOwner {\r\n        emit ContractStatusChanged(_status, status_);\r\n        _status = status_;\r\n    }\r\n\r\n    // Set status of contract\r\n    function getMaxSupply() external view returns(uint256) {\r\n        return _maxSupply;\r\n    }\r\n\r\n    // Get status of contract\r\n    function setMaxSupply(uint256 maxSupply_) external onlyOwner {\r\n        emit MaxSupplyChanged(_maxSupply, maxSupply_);\r\n        _maxSupply = maxSupply_;\r\n    }\r\n\r\n    // Add wallet to deny list, if wallet is in deny list, is not possible to mint NFT\r\n    function addToDenyList(address wallet_) external onlyOwner {\r\n        _denylist[wallet_] = true;\r\n        emit WalletAddedToDenyList(wallet_);\r\n    }\r\n\r\n    // Remove wallet from deny list, if wallet is in deny list, is not possible to mint NFT\r\n    function removeFromDenyList(address wallet_) external onlyOwner {\r\n        _denylist[wallet_] = false;\r\n    }\r\n\r\n    // Check if wallet in deny list, if wallet is in deny list, is not possible to mint NFT\r\n    function checkDenyList(address wallet_) external view returns(bool) {\r\n        return _denylist[wallet_];\r\n    }\r\n\r\n    // Withdraw all current ethers in balance of contract\r\n    function withdraw() external payable onlyOwner {\r\n        address to = owner();\r\n        uint256 balance = address(this).balance;\r\n        require(payable(to).send(balance));\r\n        emit BalanceWithdrawed(to, balance);\r\n    }\r\n\r\n    // Get amount to pay in ETH to mint NFT's\r\n    function getAmountToPay(uint256 amountToMint) external view returns(uint256) {\r\n        return _price * amountToMint;\r\n    }\r\n\r\n    fallback() external payable {        \r\n    }\r\n\r\n    receive() external payable {        \r\n    }\r\n}",
  "sourcePath": "C:\\GitHub\\birbz\\src\\contracts\\BirbzNFTToken.sol",
  "compiler": {
    "name": "solc",
    "version": "0.8.14+commit.80d49f37.Emscripten.clang"
  },
  "schemaVersion": "3.4.4",
  "updatedAt": "2022-06-19T12:05:43.665Z",
  "networkType": "ethereum",
  "devdoc": {
    "kind": "dev",
    "methods": {
      "approve(address,uint256)": {
        "details": "See {IERC721-approve}."
      },
      "balanceOf(address)": {
        "details": "See {IERC721-balanceOf}."
      },
      "getApproved(uint256)": {
        "details": "See {IERC721-getApproved}."
      },
      "isApprovedForAll(address,address)": {
        "details": "See {IERC721-isApprovedForAll}."
      },
      "name()": {
        "details": "See {IERC721Metadata-name}."
      },
      "owner()": {
        "details": "Returns the address of the current owner."
      },
      "ownerOf(uint256)": {
        "details": "See {IERC721-ownerOf}."
      },
      "renounceOwnership()": {
        "details": "Leaves the contract without owner. It will not be possible to call `onlyOwner` functions anymore. Can only be called by the current owner. NOTE: Renouncing ownership will leave the contract without an owner, thereby removing any functionality that is only available to the owner."
      },
      "safeTransferFrom(address,address,uint256)": {
        "details": "See {IERC721-safeTransferFrom}."
      },
      "safeTransferFrom(address,address,uint256,bytes)": {
        "details": "See {IERC721-safeTransferFrom}."
      },
      "setApprovalForAll(address,bool)": {
        "details": "See {IERC721-setApprovalForAll}."
      },
      "supportsInterface(bytes4)": {
        "details": "See {IERC165-supportsInterface}."
      },
      "symbol()": {
        "details": "See {IERC721Metadata-symbol}."
      },
      "tokenURI(uint256)": {
        "details": "See {IERC721Metadata-tokenURI}."
      },
      "transferFrom(address,address,uint256)": {
        "details": "See {IERC721-transferFrom}."
      },
      "transferOwnership(address)": {
        "details": "Transfers ownership of the contract to a new account (`newOwner`). Can only be called by the current owner."
      }
    },
    "version": 1
  },
  "userdoc": {
    "kind": "user",
    "methods": {},
    "version": 1
  }
}