{
  "contractName": "BirbzNFTToken",
  "abi": [
    {
      "inputs": [],
      "stateMutability": "nonpayable",
      "type": "constructor"
    },
    {
      "anonymous": false,
      "inputs": [
        {
          "indexed": true,
          "internalType": "address",
          "name": "owner",
          "type": "address"
        },
        {
          "indexed": true,
          "internalType": "address",
          "name": "approved",
          "type": "address"
        },
        {
          "indexed": true,
          "internalType": "uint256",
          "name": "tokenId",
          "type": "uint256"
        }
      ],
      "name": "Approval",
      "type": "event"
    },
    {
      "anonymous": false,
      "inputs": [
        {
          "indexed": true,
          "internalType": "address",
          "name": "owner",
          "type": "address"
        },
        {
          "indexed": true,
          "internalType": "address",
          "name": "operator",
          "type": "address"
        },
        {
          "indexed": false,
          "internalType": "bool",
          "name": "approved",
          "type": "bool"
        }
      ],
      "name": "ApprovalForAll",
      "type": "event"
    },
    {
      "anonymous": false,
      "inputs": [
        {
          "indexed": true,
          "internalType": "address",
          "name": "from",
          "type": "address"
        },
        {
          "indexed": true,
          "internalType": "address",
          "name": "to",
          "type": "address"
        },
        {
          "indexed": true,
          "internalType": "uint256",
          "name": "tokenId",
          "type": "uint256"
        }
      ],
      "name": "Transfer",
      "type": "event"
    },
    {
      "inputs": [
        {
          "internalType": "address",
          "name": "to",
          "type": "address"
        },
        {
          "internalType": "uint256",
          "name": "tokenId",
          "type": "uint256"
        }
      ],
      "name": "approve",
      "outputs": [],
      "stateMutability": "nonpayable",
      "type": "function"
    },
    {
      "inputs": [
        {
          "internalType": "address",
          "name": "owner",
          "type": "address"
        }
      ],
      "name": "balanceOf",
      "outputs": [
        {
          "internalType": "uint256",
          "name": "",
          "type": "uint256"
        }
      ],
      "stateMutability": "view",
      "type": "function",
      "constant": true
    },
    {
      "inputs": [
        {
          "internalType": "uint256",
          "name": "tokenId",
          "type": "uint256"
        }
      ],
      "name": "getApproved",
      "outputs": [
        {
          "internalType": "address",
          "name": "",
          "type": "address"
        }
      ],
      "stateMutability": "view",
      "type": "function",
      "constant": true
    },
    {
      "inputs": [
        {
          "internalType": "address",
          "name": "owner",
          "type": "address"
        },
        {
          "internalType": "address",
          "name": "operator",
          "type": "address"
        }
      ],
      "name": "isApprovedForAll",
      "outputs": [
        {
          "internalType": "bool",
          "name": "",
          "type": "bool"
        }
      ],
      "stateMutability": "view",
      "type": "function",
      "constant": true
    },
    {
      "inputs": [],
      "name": "name",
      "outputs": [
        {
          "internalType": "string",
          "name": "",
          "type": "string"
        }
      ],
      "stateMutability": "view",
      "type": "function",
      "constant": true
    },
    {
      "inputs": [
        {
          "internalType": "uint256",
          "name": "tokenId",
          "type": "uint256"
        }
      ],
      "name": "ownerOf",
      "outputs": [
        {
          "internalType": "address",
          "name": "",
          "type": "address"
        }
      ],
      "stateMutability": "view",
      "type": "function",
      "constant": true
    },
    {
      "inputs": [
        {
          "internalType": "address",
          "name": "from",
          "type": "address"
        },
        {
          "internalType": "address",
          "name": "to",
          "type": "address"
        },
        {
          "internalType": "uint256",
          "name": "tokenId",
          "type": "uint256"
        }
      ],
      "name": "safeTransferFrom",
      "outputs": [],
      "stateMutability": "nonpayable",
      "type": "function"
    },
    {
      "inputs": [
        {
          "internalType": "address",
          "name": "from",
          "type": "address"
        },
        {
          "internalType": "address",
          "name": "to",
          "type": "address"
        },
        {
          "internalType": "uint256",
          "name": "tokenId",
          "type": "uint256"
        },
        {
          "internalType": "bytes",
          "name": "data",
          "type": "bytes"
        }
      ],
      "name": "safeTransferFrom",
      "outputs": [],
      "stateMutability": "nonpayable",
      "type": "function"
    },
    {
      "inputs": [
        {
          "internalType": "address",
          "name": "operator",
          "type": "address"
        },
        {
          "internalType": "bool",
          "name": "approved",
          "type": "bool"
        }
      ],
      "name": "setApprovalForAll",
      "outputs": [],
      "stateMutability": "nonpayable",
      "type": "function"
    },
    {
      "inputs": [
        {
          "internalType": "bytes4",
          "name": "interfaceId",
          "type": "bytes4"
        }
      ],
      "name": "supportsInterface",
      "outputs": [
        {
          "internalType": "bool",
          "name": "",
          "type": "bool"
        }
      ],
      "stateMutability": "view",
      "type": "function",
      "constant": true
    },
    {
      "inputs": [],
      "name": "symbol",
      "outputs": [
        {
          "internalType": "string",
          "name": "",
          "type": "string"
        }
      ],
      "stateMutability": "view",
      "type": "function",
      "constant": true
    },
    {
      "inputs": [
        {
          "internalType": "uint256",
          "name": "tokenId",
          "type": "uint256"
        }
      ],
      "name": "tokenURI",
      "outputs": [
        {
          "internalType": "string",
          "name": "",
          "type": "string"
        }
      ],
      "stateMutability": "view",
      "type": "function",
      "constant": true
    },
    {
      "inputs": [
        {
          "internalType": "address",
          "name": "from",
          "type": "address"
        },
        {
          "internalType": "address",
          "name": "to",
          "type": "address"
        },
        {
          "internalType": "uint256",
          "name": "tokenId",
          "type": "uint256"
        }
      ],
      "name": "transferFrom",
      "outputs": [],
      "stateMutability": "nonpayable",
      "type": "function"
    },
    {
      "inputs": [
        {
          "internalType": "address",
          "name": "wallet_",
          "type": "address"
        },
        {
          "internalType": "string",
          "name": "tokenURI_",
          "type": "string"
        }
      ],
      "name": "mint",
      "outputs": [],
      "stateMutability": "nonpayable",
      "type": "function"
    },
    {
      "inputs": [
        {
          "internalType": "address",
          "name": "wallet_",
          "type": "address"
        },
        {
          "internalType": "uint256",
          "name": "amount_",
          "type": "uint256"
        },
        {
          "internalType": "string",
          "name": "tokenURI_",
          "type": "string"
        }
      ],
      "name": "mintMany",
      "outputs": [],
      "stateMutability": "nonpayable",
      "type": "function"
    }
  ],
  "bytecode": "0x60806040523480156200001157600080fd5b506040518060400160405280600581526020017f424952425a0000000000000000000000000000000000000000000000000000008152506040518060400160405280600581526020017f424952425a000000000000000000000000000000000000000000000000000000815250816000908051906020019062000096929190620000b8565b508060019080519060200190620000af929190620000b8565b505050620001cc565b828054620000c69062000197565b90600052602060002090601f016020900481019282620000ea576000855562000136565b82601f106200010557805160ff191683800117855562000136565b8280016001018555821562000136579182015b828111156200013557825182559160200191906001019062000118565b5b50905062000145919062000149565b5090565b5b80821115620001645760008160009055506001016200014a565b5090565b7f4e487b7100000000000000000000000000000000000000000000000000000000600052602260045260246000fd5b60006002820490506001821680620001b057607f821691505b602082108103620001c657620001c562000168565b5b50919050565b612cc680620001dc6000396000f3fe608060405234801561001057600080fd5b50600436106100f55760003560e01c80636352211e11610097578063b88d4fde11610066578063b88d4fde14610282578063c87b56dd1461029e578063d0def521146102ce578063e985e9c5146102ea576100f5565b80636352211e146101e857806370a082311461021857806395d89b4114610248578063a22cb46514610266576100f5565b8063095ea7b3116100d3578063095ea7b3146101785780631642b2fd1461019457806323b872dd146101b057806342842e0e146101cc576100f5565b806301ffc9a7146100fa57806306fdde031461012a578063081812fc14610148575b600080fd5b610114600480360381019061010f9190611a73565b61031a565b6040516101219190611abb565b60405180910390f35b6101326103fc565b60405161013f9190611b6f565b60405180910390f35b610162600480360381019061015d9190611bc7565b61048e565b60405161016f9190611c35565b60405180910390f35b610192600480360381019061018d9190611c7c565b6104d4565b005b6101ae60048036038101906101a99190611df1565b6105eb565b005b6101ca60048036038101906101c59190611e60565b610626565b005b6101e660048036038101906101e19190611e60565b610686565b005b61020260048036038101906101fd9190611bc7565b6106a6565b60405161020f9190611c35565b60405180910390f35b610232600480360381019061022d9190611eb3565b610757565b60405161023f9190611eef565b60405180910390f35b61025061080e565b60405161025d9190611b6f565b60405180910390f35b610280600480360381019061027b9190611f36565b6108a0565b005b61029c60048036038101906102979190612017565b6108b6565b005b6102b860048036038101906102b39190611bc7565b610918565b6040516102c59190611b6f565b60405180910390f35b6102e860048036038101906102e3919061209a565b610a2a565b005b61030460048036038101906102ff91906120f6565b610a43565b6040516103119190611abb565b60405180910390f35b60007f80ac58cd000000000000000000000000000000000000000000000000000000007bffffffffffffffffffffffffffffffffffffffffffffffffffffffff1916827bffffffffffffffffffffffffffffffffffffffffffffffffffffffff191614806103e557507f5b5e139f000000000000000000000000000000000000000000000000000000007bffffffffffffffffffffffffffffffffffffffffffffffffffffffff1916827bffffffffffffffffffffffffffffffffffffffffffffffffffffffff1916145b806103f557506103f482610ad7565b5b9050919050565b60606000805461040b90612165565b80601f016020809104026020016040519081016040528092919081815260200182805461043790612165565b80156104845780601f1061045957610100808354040283529160200191610484565b820191906000526020600020905b81548152906001019060200180831161046757829003601f168201915b5050505050905090565b600061049982610b41565b6004600083815260200190815260200160002060009054906101000a900473ffffffffffffffffffffffffffffffffffffffff169050919050565b60006104df826106a6565b90508073ffffffffffffffffffffffffffffffffffffffff168373ffffffffffffffffffffffffffffffffffffffff160361054f576040517f08c379a000000000000000000000000000000000000000000000000000000000815260040161054690612208565b60405180910390fd5b8073ffffffffffffffffffffffffffffffffffffffff1661056e610b8c565b73ffffffffffffffffffffffffffffffffffffffff16148061059d575061059c81610597610b8c565b610a43565b5b6105dc576040517f08c379a00000000000000000000000000000000000000000000000000000000081526004016105d39061229a565b60405180910390fd5b6105e68383610b94565b505050565b6105f58383610c4d565b6000600190505b8281116106205761060d8483610d9a565b8080610618906122e9565b9150506105fc565b50505050565b610637610631610b8c565b82610e31565b610676576040517f08c379a000000000000000000000000000000000000000000000000000000000815260040161066d906123a3565b60405180910390fd5b610681838383610ec6565b505050565b6106a1838383604051806020016040528060008152506108b6565b505050565b6000806002600084815260200190815260200160002060009054906101000a900473ffffffffffffffffffffffffffffffffffffffff169050600073ffffffffffffffffffffffffffffffffffffffff168173ffffffffffffffffffffffffffffffffffffffff160361074e576040517f08c379a00000000000000000000000000000000000000000000000000000000081526004016107459061240f565b60405180910390fd5b80915050919050565b60008073ffffffffffffffffffffffffffffffffffffffff168273ffffffffffffffffffffffffffffffffffffffff16036107c7576040517f08c379a00000000000000000000000000000000000000000000000000000000081526004016107be906124a1565b60405180910390fd5b600360008373ffffffffffffffffffffffffffffffffffffffff1673ffffffffffffffffffffffffffffffffffffffff168152602001908152602001600020549050919050565b60606001805461081d90612165565b80601f016020809104026020016040519081016040528092919081815260200182805461084990612165565b80156108965780601f1061086b57610100808354040283529160200191610896565b820191906000526020600020905b81548152906001019060200180831161087957829003601f168201915b5050505050905090565b6108b26108ab610b8c565b838361112c565b5050565b6108c76108c1610b8c565b83610e31565b610906576040517f08c379a00000000000000000000000000000000000000000000000000000000081526004016108fd906123a3565b60405180910390fd5b61091284848484611298565b50505050565b606061092382610b41565b600060066000848152602001908152602001600020805461094390612165565b80601f016020809104026020016040519081016040528092919081815260200182805461096f90612165565b80156109bc5780601f10610991576101008083540402835291602001916109bc565b820191906000526020600020905b81548152906001019060200180831161099f57829003601f168201915b5050505050905060006109cd6112f4565b905060008151036109e2578192505050610a25565b600082511115610a175780826040516020016109ff9291906124fd565b60405160208183030381529060405292505050610a25565b610a208461130b565b925050505b919050565b610a35826001610c4d565b610a3f8282610d9a565b5050565b6000600560008473ffffffffffffffffffffffffffffffffffffffff1673ffffffffffffffffffffffffffffffffffffffff16815260200190815260200160002060008373ffffffffffffffffffffffffffffffffffffffff1673ffffffffffffffffffffffffffffffffffffffff16815260200190815260200160002060009054906101000a900460ff16905092915050565b60007f01ffc9a7000000000000000000000000000000000000000000000000000000007bffffffffffffffffffffffffffffffffffffffffffffffffffffffff1916827bffffffffffffffffffffffffffffffffffffffffffffffffffffffff1916149050919050565b610b4a81611373565b610b89576040517f08c379a0000000000000000000000000000000000000000000000000000000008152600401610b809061240f565b60405180910390fd5b50565b600033905090565b816004600083815260200190815260200160002060006101000a81548173ffffffffffffffffffffffffffffffffffffffff021916908373ffffffffffffffffffffffffffffffffffffffff160217905550808273ffffffffffffffffffffffffffffffffffffffff16610c07836106a6565b73ffffffffffffffffffffffffffffffffffffffff167f8c5be1e5ebec7d5bd14f71427d1e84f3dd0314c0f7b2291e5b200ac8c7c3b92560405160405180910390a45050565b600a811115610c91576040517f08c379a0000000000000000000000000000000000000000000000000000000008152600401610c8890612593565b60405180910390fd5b600073ffffffffffffffffffffffffffffffffffffffff168273ffffffffffffffffffffffffffffffffffffffff1603610d00576040517f08c379a0000000000000000000000000000000000000000000000000000000008152600401610cf790612625565b60405180910390fd5b6000600860008473ffffffffffffffffffffffffffffffffffffffff1673ffffffffffffffffffffffffffffffffffffffff168152602001908152602001600020805490509050600a8282610d559190612645565b10610d95576040517f08c379a0000000000000000000000000000000000000000000000000000000008152600401610d8c9061270d565b60405180910390fd5b505050565b6000610da660076113df565b9050610db283826113ed565b610dbc81836115c6565b610dc6600761163a565b600860008473ffffffffffffffffffffffffffffffffffffffff1673ffffffffffffffffffffffffffffffffffffffff168152602001908152602001600020819080600181540180825580915050600190039060005260206000200160009091909190915055505050565b600080610e3d836106a6565b90508073ffffffffffffffffffffffffffffffffffffffff168473ffffffffffffffffffffffffffffffffffffffff161480610e7f5750610e7e8185610a43565b5b80610ebd57508373ffffffffffffffffffffffffffffffffffffffff16610ea58461048e565b73ffffffffffffffffffffffffffffffffffffffff16145b91505092915050565b8273ffffffffffffffffffffffffffffffffffffffff16610ee6826106a6565b73ffffffffffffffffffffffffffffffffffffffff1614610f3c576040517f08c379a0000000000000000000000000000000000000000000000000000000008152600401610f339061279f565b60405180910390fd5b600073ffffffffffffffffffffffffffffffffffffffff168273ffffffffffffffffffffffffffffffffffffffff1603610fab576040517f08c379a0000000000000000000000000000000000000000000000000000000008152600401610fa290612831565b60405180910390fd5b610fb6838383611650565b610fc1600082610b94565b6001600360008573ffffffffffffffffffffffffffffffffffffffff1673ffffffffffffffffffffffffffffffffffffffff16815260200190815260200160002060008282546110119190612851565b925050819055506001600360008473ffffffffffffffffffffffffffffffffffffffff1673ffffffffffffffffffffffffffffffffffffffff16815260200190815260200160002060008282546110689190612645565b92505081905550816002600083815260200190815260200160002060006101000a81548173ffffffffffffffffffffffffffffffffffffffff021916908373ffffffffffffffffffffffffffffffffffffffff160217905550808273ffffffffffffffffffffffffffffffffffffffff168473ffffffffffffffffffffffffffffffffffffffff167fddf252ad1be2c89b69c2b068fc378daa952ba7f163c4a11628f55a4df523b3ef60405160405180910390a4611127838383611655565b505050565b8173ffffffffffffffffffffffffffffffffffffffff168373ffffffffffffffffffffffffffffffffffffffff160361119a576040517f08c379a0000000000000000000000000000000000000000000000000000000008152600401611191906128d1565b60405180910390fd5b80600560008573ffffffffffffffffffffffffffffffffffffffff1673ffffffffffffffffffffffffffffffffffffffff16815260200190815260200160002060008473ffffffffffffffffffffffffffffffffffffffff1673ffffffffffffffffffffffffffffffffffffffff16815260200190815260200160002060006101000a81548160ff0219169083151502179055508173ffffffffffffffffffffffffffffffffffffffff168373ffffffffffffffffffffffffffffffffffffffff167f17307eab39ab6107e8899845ad3d59bd9653f200f220920489ca2b5937696c318360405161128b9190611abb565b60405180910390a3505050565b6112a3848484610ec6565b6112af8484848461165a565b6112ee576040517f08c379a00000000000000000000000000000000000000000000000000000000081526004016112e590612963565b60405180910390fd5b50505050565b606060405180602001604052806000815250905090565b606061131682610b41565b60006113206112f4565b90506000815111611340576040518060200160405280600081525061136b565b8061134a846117e1565b60405160200161135b9291906124fd565b6040516020818303038152906040525b915050919050565b60008073ffffffffffffffffffffffffffffffffffffffff166002600084815260200190815260200160002060009054906101000a900473ffffffffffffffffffffffffffffffffffffffff1673ffffffffffffffffffffffffffffffffffffffff1614159050919050565b600081600001549050919050565b600073ffffffffffffffffffffffffffffffffffffffff168273ffffffffffffffffffffffffffffffffffffffff160361145c576040517f08c379a0000000000000000000000000000000000000000000000000000000008152600401611453906129cf565b60405180910390fd5b61146581611373565b156114a5576040517f08c379a000000000000000000000000000000000000000000000000000000000815260040161149c90612a3b565b60405180910390fd5b6114b160008383611650565b6001600360008473ffffffffffffffffffffffffffffffffffffffff1673ffffffffffffffffffffffffffffffffffffffff16815260200190815260200160002060008282546115019190612645565b92505081905550816002600083815260200190815260200160002060006101000a81548173ffffffffffffffffffffffffffffffffffffffff021916908373ffffffffffffffffffffffffffffffffffffffff160217905550808273ffffffffffffffffffffffffffffffffffffffff16600073ffffffffffffffffffffffffffffffffffffffff167fddf252ad1be2c89b69c2b068fc378daa952ba7f163c4a11628f55a4df523b3ef60405160405180910390a46115c260008383611655565b5050565b6115cf82611373565b61160e576040517f08c379a000000000000000000000000000000000000000000000000000000000815260040161160590612acd565b60405180910390fd5b80600660008481526020019081526020016000209080519060200190611635929190611964565b505050565b6001816000016000828254019250508190555050565b505050565b505050565b600061167b8473ffffffffffffffffffffffffffffffffffffffff16611941565b156117d4578373ffffffffffffffffffffffffffffffffffffffff1663150b7a026116a4610b8c565b8786866040518563ffffffff1660e01b81526004016116c69493929190612b42565b6020604051808303816000875af192505050801561170257506040513d601f19601f820116820180604052508101906116ff9190612ba3565b60015b611784573d8060008114611732576040519150601f19603f3d011682016040523d82523d6000602084013e611737565b606091505b50600081510361177c576040517f08c379a000000000000000000000000000000000000000000000000000000000815260040161177390612963565b60405180910390fd5b805181602001fd5b63150b7a0260e01b7bffffffffffffffffffffffffffffffffffffffffffffffffffffffff1916817bffffffffffffffffffffffffffffffffffffffffffffffffffffffff1916149150506117d9565b600190505b949350505050565b606060008203611828576040518060400160405280600181526020017f3000000000000000000000000000000000000000000000000000000000000000815250905061193c565b600082905060005b6000821461185a578080611843906122e9565b915050600a826118539190612bff565b9150611830565b60008167ffffffffffffffff81111561187657611875611cc6565b5b6040519080825280601f01601f1916602001820160405280156118a85781602001600182028036833780820191505090505b5090505b60008514611935576001826118c19190612851565b9150600a856118d09190612c30565b60306118dc9190612645565b60f81b8183815181106118f2576118f1612c61565b5b60200101907effffffffffffffffffffffffffffffffffffffffffffffffffffffffffffff1916908160001a905350600a8561192e9190612bff565b94506118ac565b8093505050505b919050565b6000808273ffffffffffffffffffffffffffffffffffffffff163b119050919050565b82805461197090612165565b90600052602060002090601f01602090048101928261199257600085556119d9565b82601f106119ab57805160ff19168380011785556119d9565b828001600101855582156119d9579182015b828111156119d85782518255916020019190600101906119bd565b5b5090506119e691906119ea565b5090565b5b80821115611a035760008160009055506001016119eb565b5090565b6000604051905090565b600080fd5b600080fd5b60007fffffffff0000000000000000000000000000000000000000000000000000000082169050919050565b611a5081611a1b565b8114611a5b57600080fd5b50565b600081359050611a6d81611a47565b92915050565b600060208284031215611a8957611a88611a11565b5b6000611a9784828501611a5e565b91505092915050565b60008115159050919050565b611ab581611aa0565b82525050565b6000602082019050611ad06000830184611aac565b92915050565b600081519050919050565b600082825260208201905092915050565b60005b83811015611b10578082015181840152602081019050611af5565b83811115611b1f576000848401525b50505050565b6000601f19601f8301169050919050565b6000611b4182611ad6565b611b4b8185611ae1565b9350611b5b818560208601611af2565b611b6481611b25565b840191505092915050565b60006020820190508181036000830152611b898184611b36565b905092915050565b6000819050919050565b611ba481611b91565b8114611baf57600080fd5b50565b600081359050611bc181611b9b565b92915050565b600060208284031215611bdd57611bdc611a11565b5b6000611beb84828501611bb2565b91505092915050565b600073ffffffffffffffffffffffffffffffffffffffff82169050919050565b6000611c1f82611bf4565b9050919050565b611c2f81611c14565b82525050565b6000602082019050611c4a6000830184611c26565b92915050565b611c5981611c14565b8114611c6457600080fd5b50565b600081359050611c7681611c50565b92915050565b60008060408385031215611c9357611c92611a11565b5b6000611ca185828601611c67565b9250506020611cb285828601611bb2565b9150509250929050565b600080fd5b600080fd5b7f4e487b7100000000000000000000000000000000000000000000000000000000600052604160045260246000fd5b611cfe82611b25565b810181811067ffffffffffffffff82111715611d1d57611d1c611cc6565b5b80604052505050565b6000611d30611a07565b9050611d3c8282611cf5565b919050565b600067ffffffffffffffff821115611d5c57611d5b611cc6565b5b611d6582611b25565b9050602081019050919050565b82818337600083830152505050565b6000611d94611d8f84611d41565b611d26565b905082815260208101848484011115611db057611daf611cc1565b5b611dbb848285611d72565b509392505050565b600082601f830112611dd857611dd7611cbc565b5b8135611de8848260208601611d81565b91505092915050565b600080600060608486031215611e0a57611e09611a11565b5b6000611e1886828701611c67565b9350506020611e2986828701611bb2565b925050604084013567ffffffffffffffff811115611e4a57611e49611a16565b5b611e5686828701611dc3565b9150509250925092565b600080600060608486031215611e7957611e78611a11565b5b6000611e8786828701611c67565b9350506020611e9886828701611c67565b9250506040611ea986828701611bb2565b9150509250925092565b600060208284031215611ec957611ec8611a11565b5b6000611ed784828501611c67565b91505092915050565b611ee981611b91565b82525050565b6000602082019050611f046000830184611ee0565b92915050565b611f1381611aa0565b8114611f1e57600080fd5b50565b600081359050611f3081611f0a565b92915050565b60008060408385031215611f4d57611f4c611a11565b5b6000611f5b85828601611c67565b9250506020611f6c85828601611f21565b9150509250929050565b600067ffffffffffffffff821115611f9157611f90611cc6565b5b611f9a82611b25565b9050602081019050919050565b6000611fba611fb584611f76565b611d26565b905082815260208101848484011115611fd657611fd5611cc1565b5b611fe1848285611d72565b509392505050565b600082601f830112611ffe57611ffd611cbc565b5b813561200e848260208601611fa7565b91505092915050565b6000806000806080858703121561203157612030611a11565b5b600061203f87828801611c67565b945050602061205087828801611c67565b935050604061206187828801611bb2565b925050606085013567ffffffffffffffff81111561208257612081611a16565b5b61208e87828801611fe9565b91505092959194509250565b600080604083850312156120b1576120b0611a11565b5b60006120bf85828601611c67565b925050602083013567ffffffffffffffff8111156120e0576120df611a16565b5b6120ec85828601611dc3565b9150509250929050565b6000806040838503121561210d5761210c611a11565b5b600061211b85828601611c67565b925050602061212c85828601611c67565b9150509250929050565b7f4e487b7100000000000000000000000000000000000000000000000000000000600052602260045260246000fd5b6000600282049050600182168061217d57607f821691505b6020821081036121905761218f612136565b5b50919050565b7f4552433732313a20617070726f76616c20746f2063757272656e74206f776e6560008201527f7200000000000000000000000000000000000000000000000000000000000000602082015250565b60006121f2602183611ae1565b91506121fd82612196565b604082019050919050565b60006020820190508181036000830152612221816121e5565b9050919050565b7f4552433732313a20617070726f76652063616c6c6572206973206e6f7420746f60008201527f6b656e206f776e6572206e6f7220617070726f76656420666f7220616c6c0000602082015250565b6000612284603e83611ae1565b915061228f82612228565b604082019050919050565b600060208201905081810360008301526122b381612277565b9050919050565b7f4e487b7100000000000000000000000000000000000000000000000000000000600052601160045260246000fd5b60006122f482611b91565b91507fffffffffffffffffffffffffffffffffffffffffffffffffffffffffffffffff8203612326576123256122ba565b5b600182019050919050565b7f4552433732313a2063616c6c6572206973206e6f7420746f6b656e206f776e6560008201527f72206e6f7220617070726f766564000000000000000000000000000000000000602082015250565b600061238d602e83611ae1565b915061239882612331565b604082019050919050565b600060208201905081810360008301526123bc81612380565b9050919050565b7f4552433732313a20696e76616c696420746f6b656e2049440000000000000000600082015250565b60006123f9601883611ae1565b9150612404826123c3565b602082019050919050565b60006020820190508181036000830152612428816123ec565b9050919050565b7f4552433732313a2061646472657373207a65726f206973206e6f74206120766160008201527f6c6964206f776e65720000000000000000000000000000000000000000000000602082015250565b600061248b602983611ae1565b91506124968261242f565b604082019050919050565b600060208201905081810360008301526124ba8161247e565b9050919050565b600081905092915050565b60006124d782611ad6565b6124e181856124c1565b93506124f1818560208601611af2565b80840191505092915050565b600061250982856124cc565b915061251582846124cc565b91508190509392505050565b7f4552524f523a20616d6f756e74206e65656420746f20626520657175616c206f60008201527f72206c6f77657220313021000000000000000000000000000000000000000000602082015250565b600061257d602b83611ae1565b915061258882612521565b604082019050919050565b600060208201905081810360008301526125ac81612570565b9050919050565b7f4552524f523a2077616c6c6574206e65656420626520646966666572656e742060008201527f7a65726f20616464726573732100000000000000000000000000000000000000602082015250565b600061260f602d83611ae1565b915061261a826125b3565b604082019050919050565b6000602082019050818103600083015261263e81612602565b9050919050565b600061265082611b91565b915061265b83611b91565b9250827fffffffffffffffffffffffffffffffffffffffffffffffffffffffffffffffff038211156126905761268f6122ba565b5b828201905092915050565b7f4552524f523a20497320616c6c6f776564206f6e6c7920313020746f6b656e7360008201527f2062792077616c6c657400000000000000000000000000000000000000000000602082015250565b60006126f7602a83611ae1565b91506127028261269b565b604082019050919050565b60006020820190508181036000830152612726816126ea565b9050919050565b7f4552433732313a207472616e736665722066726f6d20696e636f72726563742060008201527f6f776e6572000000000000000000000000000000000000000000000000000000602082015250565b6000612789602583611ae1565b91506127948261272d565b604082019050919050565b600060208201905081810360008301526127b88161277c565b9050919050565b7f4552433732313a207472616e7366657220746f20746865207a65726f2061646460008201527f7265737300000000000000000000000000000000000000000000000000000000602082015250565b600061281b602483611ae1565b9150612826826127bf565b604082019050919050565b6000602082019050818103600083015261284a8161280e565b9050919050565b600061285c82611b91565b915061286783611b91565b92508282101561287a576128796122ba565b5b828203905092915050565b7f4552433732313a20617070726f766520746f2063616c6c657200000000000000600082015250565b60006128bb601983611ae1565b91506128c682612885565b602082019050919050565b600060208201905081810360008301526128ea816128ae565b9050919050565b7f4552433732313a207472616e7366657220746f206e6f6e20455243373231526560008201527f63656976657220696d706c656d656e7465720000000000000000000000000000602082015250565b600061294d603283611ae1565b9150612958826128f1565b604082019050919050565b6000602082019050818103600083015261297c81612940565b9050919050565b7f4552433732313a206d696e7420746f20746865207a65726f2061646472657373600082015250565b60006129b9602083611ae1565b91506129c482612983565b602082019050919050565b600060208201905081810360008301526129e8816129ac565b9050919050565b7f4552433732313a20746f6b656e20616c7265616479206d696e74656400000000600082015250565b6000612a25601c83611ae1565b9150612a30826129ef565b602082019050919050565b60006020820190508181036000830152612a5481612a18565b9050919050565b7f45524337323155524953746f726167653a2055524920736574206f66206e6f6e60008201527f6578697374656e7420746f6b656e000000000000000000000000000000000000602082015250565b6000612ab7602e83611ae1565b9150612ac282612a5b565b604082019050919050565b60006020820190508181036000830152612ae681612aaa565b9050919050565b600081519050919050565b600082825260208201905092915050565b6000612b1482612aed565b612b1e8185612af8565b9350612b2e818560208601611af2565b612b3781611b25565b840191505092915050565b6000608082019050612b576000830187611c26565b612b646020830186611c26565b612b716040830185611ee0565b8181036060830152612b838184612b09565b905095945050505050565b600081519050612b9d81611a47565b92915050565b600060208284031215612bb957612bb8611a11565b5b6000612bc784828501612b8e565b91505092915050565b7f4e487b7100000000000000000000000000000000000000000000000000000000600052601260045260246000fd5b6000612c0a82611b91565b9150612c1583611b91565b925082612c2557612c24612bd0565b5b828204905092915050565b6000612c3b82611b91565b9150612c4683611b91565b925082612c5657612c55612bd0565b5b828206905092915050565b7f4e487b7100000000000000000000000000000000000000000000000000000000600052603260045260246000fdfea2646970667358221220de436714c2aa0e0a4690af0a6e7a287f50b9bd64204f8c4ca61a44a5537d328064736f6c634300080e0033",
  "immutableReferences": {},
  "source": "// SPDX-License-Identifier: MIT\r\npragma solidity 0.8.14;\r\n\r\nimport \"./ERC721URIStorage.sol\";\r\nimport \"./Counters.sol\";\r\n\r\ncontract BirbzNFTToken is ERC721URIStorage {\r\n    using Counters for Counters.Counter;\r\n    Counters.Counter private _tokenIds;\r\n    mapping(address => uint256[]) private _walletToTokens;\r\n    uint256 constant private MAX_TOKENS_BY_WALLET = 10;\r\n\r\n    constructor() ERC721(\"BIRBZ\", \"BIRBZ\") {}\r\n\r\n    function _checkBeforeMint(address wallet_, uint256 amount_) private view {\r\n        require(amount_ <= 10, \"ERROR: amount need to be equal or lower 10!\");\r\n        require(wallet_ != address(0), \"ERROR: wallet need be different zero address!\");\r\n        // Check number of already minted plus new\r\n        uint alreadyMinted = _walletToTokens[wallet_].length;\r\n        require((alreadyMinted + amount_) < MAX_TOKENS_BY_WALLET, \"ERROR: Is allowed only 10 tokens by wallet\");\r\n    }\r\n\r\n    function _mintOne(address wallet_, string memory tokenURI_) private {\r\n        uint256 newItemId = _tokenIds.current();\r\n        _mint(wallet_, newItemId);\r\n        _setTokenURI(newItemId, tokenURI_);\r\n        _tokenIds.increment();\r\n        _walletToTokens[wallet_].push(newItemId);\r\n    }\r\n\r\n    function mint(address wallet_, string memory tokenURI_) public {\r\n        _checkBeforeMint(wallet_, 1);\r\n        _mintOne(wallet_, tokenURI_);\r\n    }\r\n\r\n    function mintMany(address wallet_, uint256 amount_, string memory tokenURI_) public {\r\n        _checkBeforeMint(wallet_, amount_);\r\n        for(uint256 i = 1; i <= amount_; i++) {\r\n            _mintOne(wallet_, tokenURI_);\r\n        }\r\n    }\r\n}",
  "sourcePath": "C:\\GitHub\\birbz\\src\\contracts\\BirbzNFTToken.sol",
  "compiler": {
    "name": "solc",
    "version": "0.8.14+commit.80d49f37.Emscripten.clang"
  },
  "schemaVersion": "3.4.7",
  "updatedAt": "2022-06-13T16:55:20.650Z",
  "networkType": "ethereum",
  "devdoc": {
    "kind": "dev",
    "methods": {
      "approve(address,uint256)": {
        "details": "See {IERC721-approve}."
      },
      "balanceOf(address)": {
        "details": "See {IERC721-balanceOf}."
      },
      "getApproved(uint256)": {
        "details": "See {IERC721-getApproved}."
      },
      "isApprovedForAll(address,address)": {
        "details": "See {IERC721-isApprovedForAll}."
      },
      "name()": {
        "details": "See {IERC721Metadata-name}."
      },
      "ownerOf(uint256)": {
        "details": "See {IERC721-ownerOf}."
      },
      "safeTransferFrom(address,address,uint256)": {
        "details": "See {IERC721-safeTransferFrom}."
      },
      "safeTransferFrom(address,address,uint256,bytes)": {
        "details": "See {IERC721-safeTransferFrom}."
      },
      "setApprovalForAll(address,bool)": {
        "details": "See {IERC721-setApprovalForAll}."
      },
      "supportsInterface(bytes4)": {
        "details": "See {IERC165-supportsInterface}."
      },
      "symbol()": {
        "details": "See {IERC721Metadata-symbol}."
      },
      "tokenURI(uint256)": {
        "details": "See {IERC721Metadata-tokenURI}."
      },
      "transferFrom(address,address,uint256)": {
        "details": "See {IERC721-transferFrom}."
      }
    },
    "version": 1
  },
  "userdoc": {
    "kind": "user",
    "methods": {},
    "version": 1
  }
}